{
	"Assignment_3_student/StudentData.sol": {
		"StudentData": {
			"abi": [
				{
					"inputs": [],
					"stateMutability": "nonpayable",
					"type": "constructor"
				},
				{
					"anonymous": false,
					"inputs": [
						{
							"indexed": false,
							"internalType": "address",
							"name": "sender",
							"type": "address"
						},
						{
							"indexed": false,
							"internalType": "uint256",
							"name": "amount",
							"type": "uint256"
						},
						{
							"indexed": false,
							"internalType": "bytes",
							"name": "data",
							"type": "bytes"
						}
					],
					"name": "FallbackCalled",
					"type": "event"
				},
				{
					"anonymous": false,
					"inputs": [
						{
							"indexed": false,
							"internalType": "address",
							"name": "sender",
							"type": "address"
						},
						{
							"indexed": false,
							"internalType": "uint256",
							"name": "amount",
							"type": "uint256"
						}
					],
					"name": "Received",
					"type": "event"
				},
				{
					"anonymous": false,
					"inputs": [
						{
							"indexed": false,
							"internalType": "uint256",
							"name": "id",
							"type": "uint256"
						},
						{
							"indexed": false,
							"internalType": "string",
							"name": "name",
							"type": "string"
						}
					],
					"name": "StudentAdded",
					"type": "event"
				},
				{
					"stateMutability": "payable",
					"type": "fallback"
				},
				{
					"inputs": [
						{
							"internalType": "uint256",
							"name": "_id",
							"type": "uint256"
						},
						{
							"internalType": "string",
							"name": "_name",
							"type": "string"
						},
						{
							"internalType": "uint256",
							"name": "_age",
							"type": "uint256"
						},
						{
							"internalType": "string",
							"name": "_course",
							"type": "string"
						}
					],
					"name": "addStudent",
					"outputs": [],
					"stateMutability": "nonpayable",
					"type": "function"
				},
				{
					"inputs": [
						{
							"internalType": "uint256",
							"name": "index",
							"type": "uint256"
						}
					],
					"name": "getStudent",
					"outputs": [
						{
							"internalType": "uint256",
							"name": "",
							"type": "uint256"
						},
						{
							"internalType": "string",
							"name": "",
							"type": "string"
						},
						{
							"internalType": "uint256",
							"name": "",
							"type": "uint256"
						},
						{
							"internalType": "string",
							"name": "",
							"type": "string"
						}
					],
					"stateMutability": "view",
					"type": "function"
				},
				{
					"inputs": [],
					"name": "getTotalStudents",
					"outputs": [
						{
							"internalType": "uint256",
							"name": "",
							"type": "uint256"
						}
					],
					"stateMutability": "view",
					"type": "function"
				},
				{
					"inputs": [],
					"name": "owner",
					"outputs": [
						{
							"internalType": "address",
							"name": "",
							"type": "address"
						}
					],
					"stateMutability": "view",
					"type": "function"
				},
				{
					"inputs": [
						{
							"internalType": "uint256",
							"name": "",
							"type": "uint256"
						}
					],
					"name": "students",
					"outputs": [
						{
							"internalType": "uint256",
							"name": "id",
							"type": "uint256"
						},
						{
							"internalType": "string",
							"name": "name",
							"type": "string"
						},
						{
							"internalType": "uint256",
							"name": "age",
							"type": "uint256"
						},
						{
							"internalType": "string",
							"name": "course",
							"type": "string"
						}
					],
					"stateMutability": "view",
					"type": "function"
				},
				{
					"stateMutability": "payable",
					"type": "receive"
				}
			],
			"devdoc": {
				"kind": "dev",
				"methods": {},
				"version": 1
			},
			"evm": {
				"assembly": "    /* \"Assignment_3_student/StudentData.sol\":61:1886  contract StudentData {... */\n  mstore(0x40, 0x80)\n    /* \"Assignment_3_student/StudentData.sol\":583:690  constructor() {... */\n  callvalue\n  dup1\n  iszero\n  tag_1\n  jumpi\n  revert(0x00, 0x00)\ntag_1:\n  pop\n    /* \"Assignment_3_student/StudentData.sol\":616:626  msg.sender */\n  caller\n    /* \"Assignment_3_student/StudentData.sol\":608:613  owner */\n  0x01\n  0x00\n    /* \"Assignment_3_student/StudentData.sol\":608:626  owner = msg.sender */\n  0x0100\n  exp\n  dup2\n  sload\n  dup2\n  0xffffffffffffffffffffffffffffffffffffffff\n  mul\n  not\n  and\n  swap1\n  dup4\n  0xffffffffffffffffffffffffffffffffffffffff\n  and\n  mul\n  or\n  swap1\n  sstore\n  pop\n    /* \"Assignment_3_student/StudentData.sol\":61:1886  contract StudentData {... */\n  dataSize(sub_0)\n  dup1\n  dataOffset(sub_0)\n  0x00\n  codecopy\n  0x00\n  return\nstop\n\nsub_0: assembly {\n        /* \"Assignment_3_student/StudentData.sol\":61:1886  contract StudentData {... */\n      mstore(0x40, 0x80)\n      jumpi(tag_1, lt(calldatasize, 0x04))\n      shr(0xe0, calldataload(0x00))\n      dup1\n      0x06ead22e\n      eq\n      tag_3\n      jumpi\n      dup1\n      0x28bcb51a\n      eq\n      tag_4\n      jumpi\n      dup1\n      0x5900fe9f\n      eq\n      tag_5\n      jumpi\n      dup1\n      0x642f9163\n      eq\n      tag_6\n      jumpi\n      dup1\n      0x8da5cb5b\n      eq\n      tag_7\n      jumpi\n      jump(tag_2)\n    tag_1:\n      jumpi(tag_2, calldatasize)\n        /* \"Assignment_3_student/StudentData.sol\":1673:1704  Received(msg.sender, msg.value) */\n      0x88a5966d370b9919b20f3e2c13ff65706f196a4e32cc2c12bf57088f88525874\n        /* \"Assignment_3_student/StudentData.sol\":1682:1692  msg.sender */\n      caller\n        /* \"Assignment_3_student/StudentData.sol\":1694:1703  msg.value */\n      callvalue\n        /* \"Assignment_3_student/StudentData.sol\":1673:1704  Received(msg.sender, msg.value) */\n      mload(0x40)\n      tag_10\n      swap3\n      swap2\n      swap1\n      tag_11\n      jump\t// in\n    tag_10:\n      mload(0x40)\n      dup1\n      swap2\n      sub\n      swap1\n      log1\n        /* \"Assignment_3_student/StudentData.sol\":61:1886  contract StudentData {... */\n      stop\n    tag_2:\n        /* \"Assignment_3_student/StudentData.sol\":1828:1875  FallbackCalled(msg.sender, msg.value, msg.data) */\n      0xaca09dd456ca888dccf8cc966e382e6e3042bb7e4d2d7815015f844edeafce42\n        /* \"Assignment_3_student/StudentData.sol\":1843:1853  msg.sender */\n      caller\n        /* \"Assignment_3_student/StudentData.sol\":1855:1864  msg.value */\n      callvalue\n        /* \"Assignment_3_student/StudentData.sol\":1866:1874  msg.data */\n      0x00\n      calldatasize\n        /* \"Assignment_3_student/StudentData.sol\":1828:1875  FallbackCalled(msg.sender, msg.value, msg.data) */\n      mload(0x40)\n      tag_14\n      swap5\n      swap4\n      swap3\n      swap2\n      swap1\n      tag_15\n      jump\t// in\n    tag_14:\n      mload(0x40)\n      dup1\n      swap2\n      sub\n      swap1\n      log1\n        /* \"Assignment_3_student/StudentData.sol\":61:1886  contract StudentData {... */\n      stop\n        /* \"Assignment_3_student/StudentData.sol\":299:324  Student[] public students */\n    tag_3:\n      callvalue\n      dup1\n      iszero\n      tag_16\n      jumpi\n      revert(0x00, 0x00)\n    tag_16:\n      pop\n      tag_17\n      0x04\n      dup1\n      calldatasize\n      sub\n      dup2\n      add\n      swap1\n      tag_18\n      swap2\n      swap1\n      tag_19\n      jump\t// in\n    tag_18:\n      tag_20\n      jump\t// in\n    tag_17:\n      mload(0x40)\n      tag_21\n      swap5\n      swap4\n      swap3\n      swap2\n      swap1\n      tag_22\n      jump\t// in\n    tag_21:\n      mload(0x40)\n      dup1\n      swap2\n      sub\n      swap1\n      return\n        /* \"Assignment_3_student/StudentData.sol\":1139:1235  function getTotalStudents() public view returns (uint) {... */\n    tag_4:\n      callvalue\n      dup1\n      iszero\n      tag_23\n      jumpi\n      revert(0x00, 0x00)\n    tag_23:\n      pop\n      tag_24\n      tag_25\n      jump\t// in\n    tag_24:\n      mload(0x40)\n      tag_26\n      swap2\n      swap1\n      tag_27\n      jump\t// in\n    tag_26:\n      mload(0x40)\n      dup1\n      swap2\n      sub\n      swap1\n      return\n        /* \"Assignment_3_student/StudentData.sol\":745:1082  function addStudent(uint _id, string memory _name, uint _age, string memory _course) public {... */\n    tag_5:\n      callvalue\n      dup1\n      iszero\n      tag_28\n      jumpi\n      revert(0x00, 0x00)\n    tag_28:\n      pop\n      tag_29\n      0x04\n      dup1\n      calldatasize\n      sub\n      dup2\n      add\n      swap1\n      tag_30\n      swap2\n      swap1\n      tag_31\n      jump\t// in\n    tag_30:\n      tag_32\n      jump\t// in\n    tag_29:\n      stop\n        /* \"Assignment_3_student/StudentData.sol\":1292:1549  function getStudent(uint index) public view returns (uint, string memory, uint, string memory) {... */\n    tag_6:\n      callvalue\n      dup1\n      iszero\n      tag_33\n      jumpi\n      revert(0x00, 0x00)\n    tag_33:\n      pop\n      tag_34\n      0x04\n      dup1\n      calldatasize\n      sub\n      dup2\n      add\n      swap1\n      tag_35\n      swap2\n      swap1\n      tag_19\n      jump\t// in\n    tag_35:\n      tag_36\n      jump\t// in\n    tag_34:\n      mload(0x40)\n      tag_37\n      swap5\n      swap4\n      swap3\n      swap2\n      swap1\n      tag_22\n      jump\t// in\n    tag_37:\n      mload(0x40)\n      dup1\n      swap2\n      sub\n      swap1\n      return\n        /* \"Assignment_3_student/StudentData.sol\":363:383  address public owner */\n    tag_7:\n      callvalue\n      dup1\n      iszero\n      tag_38\n      jumpi\n      revert(0x00, 0x00)\n    tag_38:\n      pop\n      tag_39\n      tag_40\n      jump\t// in\n    tag_39:\n      mload(0x40)\n      tag_41\n      swap2\n      swap1\n      tag_42\n      jump\t// in\n    tag_41:\n      mload(0x40)\n      dup1\n      swap2\n      sub\n      swap1\n      return\n        /* \"Assignment_3_student/StudentData.sol\":299:324  Student[] public students */\n    tag_20:\n      0x00\n      dup2\n      dup2\n      sload\n      dup2\n      lt\n      tag_43\n      jumpi\n      0x00\n      dup1\n      revert\n    tag_43:\n      swap1\n      0x00\n      mstore\n      keccak256(0x00, 0x20)\n      swap1\n      0x04\n      mul\n      add\n      0x00\n      swap2\n      pop\n      swap1\n      pop\n      dup1\n      0x00\n      add\n      sload\n      swap1\n      dup1\n      0x01\n      add\n      dup1\n      sload\n      tag_45\n      swap1\n      tag_46\n      jump\t// in\n    tag_45:\n      dup1\n      0x1f\n      add\n      0x20\n      dup1\n      swap2\n      div\n      mul\n      0x20\n      add\n      mload(0x40)\n      swap1\n      dup2\n      add\n      0x40\n      mstore\n      dup1\n      swap3\n      swap2\n      swap1\n      dup2\n      dup2\n      mstore\n      0x20\n      add\n      dup3\n      dup1\n      sload\n      tag_47\n      swap1\n      tag_46\n      jump\t// in\n    tag_47:\n      dup1\n      iszero\n      tag_48\n      jumpi\n      dup1\n      0x1f\n      lt\n      tag_49\n      jumpi\n      0x0100\n      dup1\n      dup4\n      sload\n      div\n      mul\n      dup4\n      mstore\n      swap2\n      0x20\n      add\n      swap2\n      jump(tag_48)\n    tag_49:\n      dup3\n      add\n      swap2\n      swap1\n      0x00\n      mstore\n      keccak256(0x00, 0x20)\n      swap1\n    tag_50:\n      dup2\n      sload\n      dup2\n      mstore\n      swap1\n      0x01\n      add\n      swap1\n      0x20\n      add\n      dup1\n      dup4\n      gt\n      tag_50\n      jumpi\n      dup3\n      swap1\n      sub\n      0x1f\n      and\n      dup3\n      add\n      swap2\n    tag_48:\n      pop\n      pop\n      pop\n      pop\n      pop\n      swap1\n      dup1\n      0x02\n      add\n      sload\n      swap1\n      dup1\n      0x03\n      add\n      dup1\n      sload\n      tag_51\n      swap1\n      tag_46\n      jump\t// in\n    tag_51:\n      dup1\n      0x1f\n      add\n      0x20\n      dup1\n      swap2\n      div\n      mul\n      0x20\n      add\n      mload(0x40)\n      swap1\n      dup2\n      add\n      0x40\n      mstore\n      dup1\n      swap3\n      swap2\n      swap1\n      dup2\n      dup2\n      mstore\n      0x20\n      add\n      dup3\n      dup1\n      sload\n      tag_52\n      swap1\n      tag_46\n      jump\t// in\n    tag_52:\n      dup1\n      iszero\n      tag_53\n      jumpi\n      dup1\n      0x1f\n      lt\n      tag_54\n      jumpi\n      0x0100\n      dup1\n      dup4\n      sload\n      div\n      mul\n      dup4\n      mstore\n      swap2\n      0x20\n      add\n      swap2\n      jump(tag_53)\n    tag_54:\n      dup3\n      add\n      swap2\n      swap1\n      0x00\n      mstore\n      keccak256(0x00, 0x20)\n      swap1\n    tag_55:\n      dup2\n      sload\n      dup2\n      mstore\n      swap1\n      0x01\n      add\n      swap1\n      0x20\n      add\n      dup1\n      dup4\n      gt\n      tag_55\n      jumpi\n      dup3\n      swap1\n      sub\n      0x1f\n      and\n      dup3\n      add\n      swap2\n    tag_53:\n      pop\n      pop\n      pop\n      pop\n      pop\n      swap1\n      pop\n      dup5\n      jump\t// out\n        /* \"Assignment_3_student/StudentData.sol\":1139:1235  function getTotalStudents() public view returns (uint) {... */\n    tag_25:\n        /* \"Assignment_3_student/StudentData.sol\":1188:1192  uint */\n      0x00\n        /* \"Assignment_3_student/StudentData.sol\":1212:1220  students */\n      0x00\n        /* \"Assignment_3_student/StudentData.sol\":1212:1227  students.length */\n      dup1\n      sload\n      swap1\n      pop\n        /* \"Assignment_3_student/StudentData.sol\":1205:1227  return students.length */\n      swap1\n      pop\n        /* \"Assignment_3_student/StudentData.sol\":1139:1235  function getTotalStudents() public view returns (uint) {... */\n      swap1\n      jump\t// out\n        /* \"Assignment_3_student/StudentData.sol\":745:1082  function addStudent(uint _id, string memory _name, uint _age, string memory _course) public {... */\n    tag_32:\n        /* \"Assignment_3_student/StudentData.sol\":848:873  Student memory newStudent */\n      0x00\n        /* \"Assignment_3_student/StudentData.sol\":876:998  Student({... */\n      mload(0x40)\n      dup1\n      0x80\n      add\n      0x40\n      mstore\n      dup1\n        /* \"Assignment_3_student/StudentData.sol\":903:906  _id */\n      dup7\n        /* \"Assignment_3_student/StudentData.sol\":876:998  Student({... */\n      dup2\n      mstore\n      0x20\n      add\n        /* \"Assignment_3_student/StudentData.sol\":927:932  _name */\n      dup6\n        /* \"Assignment_3_student/StudentData.sol\":876:998  Student({... */\n      dup2\n      mstore\n      0x20\n      add\n        /* \"Assignment_3_student/StudentData.sol\":952:956  _age */\n      dup5\n        /* \"Assignment_3_student/StudentData.sol\":876:998  Student({... */\n      dup2\n      mstore\n      0x20\n      add\n        /* \"Assignment_3_student/StudentData.sol\":979:986  _course */\n      dup4\n        /* \"Assignment_3_student/StudentData.sol\":876:998  Student({... */\n      dup2\n      mstore\n      pop\n        /* \"Assignment_3_student/StudentData.sol\":848:998  Student memory newStudent = Student({... */\n      swap1\n      pop\n        /* \"Assignment_3_student/StudentData.sol\":1009:1017  students */\n      0x00\n        /* \"Assignment_3_student/StudentData.sol\":1023:1033  newStudent */\n      dup2\n        /* \"Assignment_3_student/StudentData.sol\":1009:1034  students.push(newStudent) */\n      swap1\n      dup1\n      0x01\n      dup2\n      sload\n      add\n      dup1\n      dup3\n      sstore\n      dup1\n      swap2\n      pop\n      pop\n      0x01\n      swap1\n      sub\n      swap1\n      0x00\n      mstore\n      keccak256(0x00, 0x20)\n      swap1\n      0x04\n      mul\n      add\n      0x00\n      swap1\n      swap2\n      swap1\n      swap2\n      swap1\n      swap2\n      pop\n      0x00\n      dup3\n      add\n      mload\n      dup2\n      0x00\n      add\n      sstore\n      0x20\n      dup3\n      add\n      mload\n      dup2\n      0x01\n      add\n      swap1\n      dup2\n      tag_59\n      swap2\n      swap1\n      tag_60\n      jump\t// in\n    tag_59:\n      pop\n      0x40\n      dup3\n      add\n      mload\n      dup2\n      0x02\n      add\n      sstore\n      0x60\n      dup3\n      add\n      mload\n      dup2\n      0x03\n      add\n      swap1\n      dup2\n      tag_61\n      swap2\n      swap1\n      tag_60\n      jump\t// in\n    tag_61:\n      pop\n      pop\n      pop\n        /* \"Assignment_3_student/StudentData.sol\":1050:1074  StudentAdded(_id, _name) */\n      0x9682c9a3e9734a1f8d3a641838a5d7862f4eb29fcbf4bd04e0ccac28ffcfd227\n        /* \"Assignment_3_student/StudentData.sol\":1063:1066  _id */\n      dup6\n        /* \"Assignment_3_student/StudentData.sol\":1068:1073  _name */\n      dup6\n        /* \"Assignment_3_student/StudentData.sol\":1050:1074  StudentAdded(_id, _name) */\n      mload(0x40)\n      tag_62\n      swap3\n      swap2\n      swap1\n      tag_63\n      jump\t// in\n    tag_62:\n      mload(0x40)\n      dup1\n      swap2\n      sub\n      swap1\n      log1\n        /* \"Assignment_3_student/StudentData.sol\":837:1082  {... */\n      pop\n        /* \"Assignment_3_student/StudentData.sol\":745:1082  function addStudent(uint _id, string memory _name, uint _age, string memory _course) public {... */\n      pop\n      pop\n      pop\n      pop\n      jump\t// out\n        /* \"Assignment_3_student/StudentData.sol\":1292:1549  function getStudent(uint index) public view returns (uint, string memory, uint, string memory) {... */\n    tag_36:\n        /* \"Assignment_3_student/StudentData.sol\":1345:1349  uint */\n      0x00\n        /* \"Assignment_3_student/StudentData.sol\":1351:1364  string memory */\n      0x60\n        /* \"Assignment_3_student/StudentData.sol\":1366:1370  uint */\n      0x00\n        /* \"Assignment_3_student/StudentData.sol\":1372:1385  string memory */\n      0x60\n        /* \"Assignment_3_student/StudentData.sol\":1414:1422  students */\n      0x00\n        /* \"Assignment_3_student/StudentData.sol\":1414:1429  students.length */\n      dup1\n      sload\n      swap1\n      pop\n        /* \"Assignment_3_student/StudentData.sol\":1406:1411  index */\n      dup6\n        /* \"Assignment_3_student/StudentData.sol\":1406:1429  index < students.length */\n      lt\n        /* \"Assignment_3_student/StudentData.sol\":1398:1447  require(index < students.length, \"Invalid index\") */\n      tag_65\n      jumpi\n      mload(0x40)\n      0x08c379a000000000000000000000000000000000000000000000000000000000\n      dup2\n      mstore\n      0x04\n      add\n      tag_66\n      swap1\n      tag_67\n      jump\t// in\n    tag_66:\n      mload(0x40)\n      dup1\n      swap2\n      sub\n      swap1\n      revert\n    tag_65:\n        /* \"Assignment_3_student/StudentData.sol\":1458:1474  Student memory s */\n      0x00\n        /* \"Assignment_3_student/StudentData.sol\":1477:1485  students */\n      0x00\n        /* \"Assignment_3_student/StudentData.sol\":1486:1491  index */\n      dup7\n        /* \"Assignment_3_student/StudentData.sol\":1477:1492  students[index] */\n      dup2\n      sload\n      dup2\n      lt\n      tag_68\n      jumpi\n      tag_69\n      tag_70\n      jump\t// in\n    tag_69:\n    tag_68:\n      swap1\n      0x00\n      mstore\n      keccak256(0x00, 0x20)\n      swap1\n      0x04\n      mul\n      add\n        /* \"Assignment_3_student/StudentData.sol\":1458:1492  Student memory s = students[index] */\n      mload(0x40)\n      dup1\n      0x80\n      add\n      0x40\n      mstore\n      swap1\n      dup2\n      0x00\n      dup3\n      add\n      sload\n      dup2\n      mstore\n      0x20\n      add\n      0x01\n      dup3\n      add\n      dup1\n      sload\n      tag_72\n      swap1\n      tag_46\n      jump\t// in\n    tag_72:\n      dup1\n      0x1f\n      add\n      0x20\n      dup1\n      swap2\n      div\n      mul\n      0x20\n      add\n      mload(0x40)\n      swap1\n      dup2\n      add\n      0x40\n      mstore\n      dup1\n      swap3\n      swap2\n      swap1\n      dup2\n      dup2\n      mstore\n      0x20\n      add\n      dup3\n      dup1\n      sload\n      tag_73\n      swap1\n      tag_46\n      jump\t// in\n    tag_73:\n      dup1\n      iszero\n      tag_74\n      jumpi\n      dup1\n      0x1f\n      lt\n      tag_75\n      jumpi\n      0x0100\n      dup1\n      dup4\n      sload\n      div\n      mul\n      dup4\n      mstore\n      swap2\n      0x20\n      add\n      swap2\n      jump(tag_74)\n    tag_75:\n      dup3\n      add\n      swap2\n      swap1\n      0x00\n      mstore\n      keccak256(0x00, 0x20)\n      swap1\n    tag_76:\n      dup2\n      sload\n      dup2\n      mstore\n      swap1\n      0x01\n      add\n      swap1\n      0x20\n      add\n      dup1\n      dup4\n      gt\n      tag_76\n      jumpi\n      dup3\n      swap1\n      sub\n      0x1f\n      and\n      dup3\n      add\n      swap2\n    tag_74:\n      pop\n      pop\n      pop\n      pop\n      pop\n      dup2\n      mstore\n      0x20\n      add\n      0x02\n      dup3\n      add\n      sload\n      dup2\n      mstore\n      0x20\n      add\n      0x03\n      dup3\n      add\n      dup1\n      sload\n      tag_77\n      swap1\n      tag_46\n      jump\t// in\n    tag_77:\n      dup1\n      0x1f\n      add\n      0x20\n      dup1\n      swap2\n      div\n      mul\n      0x20\n      add\n      mload(0x40)\n      swap1\n      dup2\n      add\n      0x40\n      mstore\n      dup1\n      swap3\n      swap2\n      swap1\n      dup2\n      dup2\n      mstore\n      0x20\n      add\n      dup3\n      dup1\n      sload\n      tag_78\n      swap1\n      tag_46\n      jump\t// in\n    tag_78:\n      dup1\n      iszero\n      tag_79\n      jumpi\n      dup1\n      0x1f\n      lt\n      tag_80\n      jumpi\n      0x0100\n      dup1\n      dup4\n      sload\n      div\n      mul\n      dup4\n      mstore\n      swap2\n      0x20\n      add\n      swap2\n      jump(tag_79)\n    tag_80:\n      dup3\n      add\n      swap2\n      swap1\n      0x00\n      mstore\n      keccak256(0x00, 0x20)\n      swap1\n    tag_81:\n      dup2\n      sload\n      dup2\n      mstore\n      swap1\n      0x01\n      add\n      swap1\n      0x20\n      add\n      dup1\n      dup4\n      gt\n      tag_81\n      jumpi\n      dup3\n      swap1\n      sub\n      0x1f\n      and\n      dup3\n      add\n      swap2\n    tag_79:\n      pop\n      pop\n      pop\n      pop\n      pop\n      dup2\n      mstore\n      pop\n      pop\n      swap1\n      pop\n        /* \"Assignment_3_student/StudentData.sol\":1511:1512  s */\n      dup1\n        /* \"Assignment_3_student/StudentData.sol\":1511:1515  s.id */\n      0x00\n      add\n      mload\n        /* \"Assignment_3_student/StudentData.sol\":1517:1518  s */\n      dup2\n        /* \"Assignment_3_student/StudentData.sol\":1517:1523  s.name */\n      0x20\n      add\n      mload\n        /* \"Assignment_3_student/StudentData.sol\":1525:1526  s */\n      dup3\n        /* \"Assignment_3_student/StudentData.sol\":1525:1530  s.age */\n      0x40\n      add\n      mload\n        /* \"Assignment_3_student/StudentData.sol\":1532:1533  s */\n      dup4\n        /* \"Assignment_3_student/StudentData.sol\":1532:1540  s.course */\n      0x60\n      add\n      mload\n        /* \"Assignment_3_student/StudentData.sol\":1503:1541  return (s.id, s.name, s.age, s.course) */\n      swap5\n      pop\n      swap5\n      pop\n      swap5\n      pop\n      swap5\n      pop\n      pop\n        /* \"Assignment_3_student/StudentData.sol\":1292:1549  function getStudent(uint index) public view returns (uint, string memory, uint, string memory) {... */\n      swap2\n      swap4\n      pop\n      swap2\n      swap4\n      jump\t// out\n        /* \"Assignment_3_student/StudentData.sol\":363:383  address public owner */\n    tag_40:\n      0x01\n      0x00\n      swap1\n      sload\n      swap1\n      0x0100\n      exp\n      swap1\n      div\n      0xffffffffffffffffffffffffffffffffffffffff\n      and\n      dup2\n      jump\t// out\n        /* \"#utility.yul\":7:133   */\n    tag_82:\n        /* \"#utility.yul\":44:51   */\n      0x00\n        /* \"#utility.yul\":84:126   */\n      0xffffffffffffffffffffffffffffffffffffffff\n        /* \"#utility.yul\":77:82   */\n      dup3\n        /* \"#utility.yul\":73:127   */\n      and\n        /* \"#utility.yul\":62:127   */\n      swap1\n      pop\n        /* \"#utility.yul\":7:133   */\n      swap2\n      swap1\n      pop\n      jump\t// out\n        /* \"#utility.yul\":139:235   */\n    tag_83:\n        /* \"#utility.yul\":176:183   */\n      0x00\n        /* \"#utility.yul\":205:229   */\n      tag_129\n        /* \"#utility.yul\":223:228   */\n      dup3\n        /* \"#utility.yul\":205:229   */\n      tag_82\n      jump\t// in\n    tag_129:\n        /* \"#utility.yul\":194:229   */\n      swap1\n      pop\n        /* \"#utility.yul\":139:235   */\n      swap2\n      swap1\n      pop\n      jump\t// out\n        /* \"#utility.yul\":241:359   */\n    tag_84:\n        /* \"#utility.yul\":328:352   */\n      tag_131\n        /* \"#utility.yul\":346:351   */\n      dup2\n        /* \"#utility.yul\":328:352   */\n      tag_83\n      jump\t// in\n    tag_131:\n        /* \"#utility.yul\":323:326   */\n      dup3\n        /* \"#utility.yul\":316:353   */\n      mstore\n        /* \"#utility.yul\":241:359   */\n      pop\n      pop\n      jump\t// out\n        /* \"#utility.yul\":365:442   */\n    tag_85:\n        /* \"#utility.yul\":402:409   */\n      0x00\n        /* \"#utility.yul\":431:436   */\n      dup2\n        /* \"#utility.yul\":420:436   */\n      swap1\n      pop\n        /* \"#utility.yul\":365:442   */\n      swap2\n      swap1\n      pop\n      jump\t// out\n        /* \"#utility.yul\":448:566   */\n    tag_86:\n        /* \"#utility.yul\":535:559   */\n      tag_134\n        /* \"#utility.yul\":553:558   */\n      dup2\n        /* \"#utility.yul\":535:559   */\n      tag_85\n      jump\t// in\n    tag_134:\n        /* \"#utility.yul\":530:533   */\n      dup3\n        /* \"#utility.yul\":523:560   */\n      mstore\n        /* \"#utility.yul\":448:566   */\n      pop\n      pop\n      jump\t// out\n        /* \"#utility.yul\":572:904   */\n    tag_11:\n        /* \"#utility.yul\":693:697   */\n      0x00\n        /* \"#utility.yul\":731:733   */\n      0x40\n        /* \"#utility.yul\":720:729   */\n      dup3\n        /* \"#utility.yul\":716:734   */\n      add\n        /* \"#utility.yul\":708:734   */\n      swap1\n      pop\n        /* \"#utility.yul\":744:815   */\n      tag_136\n        /* \"#utility.yul\":812:813   */\n      0x00\n        /* \"#utility.yul\":801:810   */\n      dup4\n        /* \"#utility.yul\":797:814   */\n      add\n        /* \"#utility.yul\":788:794   */\n      dup6\n        /* \"#utility.yul\":744:815   */\n      tag_84\n      jump\t// in\n    tag_136:\n        /* \"#utility.yul\":825:897   */\n      tag_137\n        /* \"#utility.yul\":893:895   */\n      0x20\n        /* \"#utility.yul\":882:891   */\n      dup4\n        /* \"#utility.yul\":878:896   */\n      add\n        /* \"#utility.yul\":869:875   */\n      dup5\n        /* \"#utility.yul\":825:897   */\n      tag_86\n      jump\t// in\n    tag_137:\n        /* \"#utility.yul\":572:904   */\n      swap4\n      swap3\n      pop\n      pop\n      pop\n      jump\t// out\n        /* \"#utility.yul\":910:1078   */\n    tag_87:\n        /* \"#utility.yul\":993:1004   */\n      0x00\n        /* \"#utility.yul\":1027:1033   */\n      dup3\n        /* \"#utility.yul\":1022:1025   */\n      dup3\n        /* \"#utility.yul\":1015:1034   */\n      mstore\n        /* \"#utility.yul\":1067:1071   */\n      0x20\n        /* \"#utility.yul\":1062:1065   */\n      dup3\n        /* \"#utility.yul\":1058:1072   */\n      add\n        /* \"#utility.yul\":1043:1072   */\n      swap1\n      pop\n        /* \"#utility.yul\":910:1078   */\n      swap3\n      swap2\n      pop\n      pop\n      jump\t// out\n        /* \"#utility.yul\":1084:1232   */\n    tag_88:\n        /* \"#utility.yul\":1182:1188   */\n      dup3\n        /* \"#utility.yul\":1177:1180   */\n      dup2\n        /* \"#utility.yul\":1172:1175   */\n      dup4\n        /* \"#utility.yul\":1159:1189   */\n      calldatacopy\n        /* \"#utility.yul\":1223:1224   */\n      0x00\n        /* \"#utility.yul\":1214:1220   */\n      dup4\n        /* \"#utility.yul\":1209:1212   */\n      dup4\n        /* \"#utility.yul\":1205:1221   */\n      add\n        /* \"#utility.yul\":1198:1225   */\n      mstore\n        /* \"#utility.yul\":1084:1232   */\n      pop\n      pop\n      pop\n      jump\t// out\n        /* \"#utility.yul\":1238:1340   */\n    tag_89:\n        /* \"#utility.yul\":1279:1285   */\n      0x00\n        /* \"#utility.yul\":1330:1332   */\n      0x1f\n        /* \"#utility.yul\":1326:1333   */\n      not\n        /* \"#utility.yul\":1321:1323   */\n      0x1f\n        /* \"#utility.yul\":1314:1319   */\n      dup4\n        /* \"#utility.yul\":1310:1324   */\n      add\n        /* \"#utility.yul\":1306:1334   */\n      and\n        /* \"#utility.yul\":1296:1334   */\n      swap1\n      pop\n        /* \"#utility.yul\":1238:1340   */\n      swap2\n      swap1\n      pop\n      jump\t// out\n        /* \"#utility.yul\":1368:1682   */\n    tag_90:\n        /* \"#utility.yul\":1464:1467   */\n      0x00\n        /* \"#utility.yul\":1485:1555   */\n      tag_142\n        /* \"#utility.yul\":1548:1554   */\n      dup4\n        /* \"#utility.yul\":1543:1546   */\n      dup6\n        /* \"#utility.yul\":1485:1555   */\n      tag_87\n      jump\t// in\n    tag_142:\n        /* \"#utility.yul\":1478:1555   */\n      swap4\n      pop\n        /* \"#utility.yul\":1565:1621   */\n      tag_143\n        /* \"#utility.yul\":1614:1620   */\n      dup4\n        /* \"#utility.yul\":1609:1612   */\n      dup6\n        /* \"#utility.yul\":1602:1607   */\n      dup5\n        /* \"#utility.yul\":1565:1621   */\n      tag_88\n      jump\t// in\n    tag_143:\n        /* \"#utility.yul\":1646:1675   */\n      tag_144\n        /* \"#utility.yul\":1668:1674   */\n      dup4\n        /* \"#utility.yul\":1646:1675   */\n      tag_89\n      jump\t// in\n    tag_144:\n        /* \"#utility.yul\":1641:1644   */\n      dup5\n        /* \"#utility.yul\":1637:1676   */\n      add\n        /* \"#utility.yul\":1630:1676   */\n      swap1\n      pop\n        /* \"#utility.yul\":1368:1682   */\n      swap4\n      swap3\n      pop\n      pop\n      pop\n      jump\t// out\n        /* \"#utility.yul\":1688:2237   */\n    tag_15:\n        /* \"#utility.yul\":1865:1869   */\n      0x00\n        /* \"#utility.yul\":1903:1905   */\n      0x60\n        /* \"#utility.yul\":1892:1901   */\n      dup3\n        /* \"#utility.yul\":1888:1906   */\n      add\n        /* \"#utility.yul\":1880:1906   */\n      swap1\n      pop\n        /* \"#utility.yul\":1916:1987   */\n      tag_146\n        /* \"#utility.yul\":1984:1985   */\n      0x00\n        /* \"#utility.yul\":1973:1982   */\n      dup4\n        /* \"#utility.yul\":1969:1986   */\n      add\n        /* \"#utility.yul\":1960:1966   */\n      dup8\n        /* \"#utility.yul\":1916:1987   */\n      tag_84\n      jump\t// in\n    tag_146:\n        /* \"#utility.yul\":1997:2069   */\n      tag_147\n        /* \"#utility.yul\":2065:2067   */\n      0x20\n        /* \"#utility.yul\":2054:2063   */\n      dup4\n        /* \"#utility.yul\":2050:2068   */\n      add\n        /* \"#utility.yul\":2041:2047   */\n      dup7\n        /* \"#utility.yul\":1997:2069   */\n      tag_86\n      jump\t// in\n    tag_147:\n        /* \"#utility.yul\":2116:2125   */\n      dup2\n        /* \"#utility.yul\":2110:2114   */\n      dup2\n        /* \"#utility.yul\":2106:2126   */\n      sub\n        /* \"#utility.yul\":2101:2103   */\n      0x40\n        /* \"#utility.yul\":2090:2099   */\n      dup4\n        /* \"#utility.yul\":2086:2104   */\n      add\n        /* \"#utility.yul\":2079:2127   */\n      mstore\n        /* \"#utility.yul\":2144:2230   */\n      tag_148\n        /* \"#utility.yul\":2225:2229   */\n      dup2\n        /* \"#utility.yul\":2216:2222   */\n      dup5\n        /* \"#utility.yul\":2208:2214   */\n      dup7\n        /* \"#utility.yul\":2144:2230   */\n      tag_90\n      jump\t// in\n    tag_148:\n        /* \"#utility.yul\":2136:2230   */\n      swap1\n      pop\n        /* \"#utility.yul\":1688:2237   */\n      swap6\n      swap5\n      pop\n      pop\n      pop\n      pop\n      pop\n      jump\t// out\n        /* \"#utility.yul\":2243:2318   */\n    tag_91:\n        /* \"#utility.yul\":2276:2282   */\n      0x00\n        /* \"#utility.yul\":2309:2311   */\n      0x40\n        /* \"#utility.yul\":2303:2312   */\n      mload\n        /* \"#utility.yul\":2293:2312   */\n      swap1\n      pop\n        /* \"#utility.yul\":2243:2318   */\n      swap1\n      jump\t// out\n        /* \"#utility.yul\":2324:2441   */\n    tag_92:\n        /* \"#utility.yul\":2433:2434   */\n      0x00\n        /* \"#utility.yul\":2430:2431   */\n      0x00\n        /* \"#utility.yul\":2423:2435   */\n      revert\n        /* \"#utility.yul\":2447:2564   */\n    tag_93:\n        /* \"#utility.yul\":2556:2557   */\n      0x00\n        /* \"#utility.yul\":2553:2554   */\n      0x00\n        /* \"#utility.yul\":2546:2558   */\n      revert\n        /* \"#utility.yul\":2570:2692   */\n    tag_94:\n        /* \"#utility.yul\":2643:2667   */\n      tag_153\n        /* \"#utility.yul\":2661:2666   */\n      dup2\n        /* \"#utility.yul\":2643:2667   */\n      tag_85\n      jump\t// in\n    tag_153:\n        /* \"#utility.yul\":2636:2641   */\n      dup2\n        /* \"#utility.yul\":2633:2668   */\n      eq\n        /* \"#utility.yul\":2623:2686   */\n      tag_154\n      jumpi\n        /* \"#utility.yul\":2682:2683   */\n      0x00\n        /* \"#utility.yul\":2679:2680   */\n      0x00\n        /* \"#utility.yul\":2672:2684   */\n      revert\n        /* \"#utility.yul\":2623:2686   */\n    tag_154:\n        /* \"#utility.yul\":2570:2692   */\n      pop\n      jump\t// out\n        /* \"#utility.yul\":2698:2837   */\n    tag_95:\n        /* \"#utility.yul\":2744:2749   */\n      0x00\n        /* \"#utility.yul\":2782:2788   */\n      dup2\n        /* \"#utility.yul\":2769:2789   */\n      calldataload\n        /* \"#utility.yul\":2760:2789   */\n      swap1\n      pop\n        /* \"#utility.yul\":2798:2831   */\n      tag_156\n        /* \"#utility.yul\":2825:2830   */\n      dup2\n        /* \"#utility.yul\":2798:2831   */\n      tag_94\n      jump\t// in\n    tag_156:\n        /* \"#utility.yul\":2698:2837   */\n      swap3\n      swap2\n      pop\n      pop\n      jump\t// out\n        /* \"#utility.yul\":2843:3172   */\n    tag_19:\n        /* \"#utility.yul\":2902:2908   */\n      0x00\n        /* \"#utility.yul\":2951:2953   */\n      0x20\n        /* \"#utility.yul\":2939:2948   */\n      dup3\n        /* \"#utility.yul\":2930:2937   */\n      dup5\n        /* \"#utility.yul\":2926:2949   */\n      sub\n        /* \"#utility.yul\":2922:2954   */\n      slt\n        /* \"#utility.yul\":2919:3038   */\n      iszero\n      tag_158\n      jumpi\n        /* \"#utility.yul\":2957:3036   */\n      tag_159\n      tag_92\n      jump\t// in\n    tag_159:\n        /* \"#utility.yul\":2919:3038   */\n    tag_158:\n        /* \"#utility.yul\":3077:3078   */\n      0x00\n        /* \"#utility.yul\":3102:3155   */\n      tag_160\n        /* \"#utility.yul\":3147:3154   */\n      dup5\n        /* \"#utility.yul\":3138:3144   */\n      dup3\n        /* \"#utility.yul\":3127:3136   */\n      dup6\n        /* \"#utility.yul\":3123:3145   */\n      add\n        /* \"#utility.yul\":3102:3155   */\n      tag_95\n      jump\t// in\n    tag_160:\n        /* \"#utility.yul\":3092:3155   */\n      swap2\n      pop\n        /* \"#utility.yul\":3048:3165   */\n      pop\n        /* \"#utility.yul\":2843:3172   */\n      swap3\n      swap2\n      pop\n      pop\n      jump\t// out\n        /* \"#utility.yul\":3178:3277   */\n    tag_96:\n        /* \"#utility.yul\":3230:3236   */\n      0x00\n        /* \"#utility.yul\":3264:3269   */\n      dup2\n        /* \"#utility.yul\":3258:3270   */\n      mload\n        /* \"#utility.yul\":3248:3270   */\n      swap1\n      pop\n        /* \"#utility.yul\":3178:3277   */\n      swap2\n      swap1\n      pop\n      jump\t// out\n        /* \"#utility.yul\":3283:3452   */\n    tag_97:\n        /* \"#utility.yul\":3367:3378   */\n      0x00\n        /* \"#utility.yul\":3401:3407   */\n      dup3\n        /* \"#utility.yul\":3396:3399   */\n      dup3\n        /* \"#utility.yul\":3389:3408   */\n      mstore\n        /* \"#utility.yul\":3441:3445   */\n      0x20\n        /* \"#utility.yul\":3436:3439   */\n      dup3\n        /* \"#utility.yul\":3432:3446   */\n      add\n        /* \"#utility.yul\":3417:3446   */\n      swap1\n      pop\n        /* \"#utility.yul\":3283:3452   */\n      swap3\n      swap2\n      pop\n      pop\n      jump\t// out\n        /* \"#utility.yul\":3458:3597   */\n    tag_98:\n        /* \"#utility.yul\":3547:3553   */\n      dup3\n        /* \"#utility.yul\":3542:3545   */\n      dup2\n        /* \"#utility.yul\":3537:3540   */\n      dup4\n        /* \"#utility.yul\":3531:3554   */\n      mcopy\n        /* \"#utility.yul\":3588:3589   */\n      0x00\n        /* \"#utility.yul\":3579:3585   */\n      dup4\n        /* \"#utility.yul\":3574:3577   */\n      dup4\n        /* \"#utility.yul\":3570:3586   */\n      add\n        /* \"#utility.yul\":3563:3590   */\n      mstore\n        /* \"#utility.yul\":3458:3597   */\n      pop\n      pop\n      pop\n      jump\t// out\n        /* \"#utility.yul\":3603:3980   */\n    tag_99:\n        /* \"#utility.yul\":3691:3694   */\n      0x00\n        /* \"#utility.yul\":3719:3758   */\n      tag_165\n        /* \"#utility.yul\":3752:3757   */\n      dup3\n        /* \"#utility.yul\":3719:3758   */\n      tag_96\n      jump\t// in\n    tag_165:\n        /* \"#utility.yul\":3774:3845   */\n      tag_166\n        /* \"#utility.yul\":3838:3844   */\n      dup2\n        /* \"#utility.yul\":3833:3836   */\n      dup6\n        /* \"#utility.yul\":3774:3845   */\n      tag_97\n      jump\t// in\n    tag_166:\n        /* \"#utility.yul\":3767:3845   */\n      swap4\n      pop\n        /* \"#utility.yul\":3854:3919   */\n      tag_167\n        /* \"#utility.yul\":3912:3918   */\n      dup2\n        /* \"#utility.yul\":3907:3910   */\n      dup6\n        /* \"#utility.yul\":3900:3904   */\n      0x20\n        /* \"#utility.yul\":3893:3898   */\n      dup7\n        /* \"#utility.yul\":3889:3905   */\n      add\n        /* \"#utility.yul\":3854:3919   */\n      tag_98\n      jump\t// in\n    tag_167:\n        /* \"#utility.yul\":3944:3973   */\n      tag_168\n        /* \"#utility.yul\":3966:3972   */\n      dup2\n        /* \"#utility.yul\":3944:3973   */\n      tag_89\n      jump\t// in\n    tag_168:\n        /* \"#utility.yul\":3939:3942   */\n      dup5\n        /* \"#utility.yul\":3935:3974   */\n      add\n        /* \"#utility.yul\":3928:3974   */\n      swap2\n      pop\n        /* \"#utility.yul\":3695:3980   */\n      pop\n        /* \"#utility.yul\":3603:3980   */\n      swap3\n      swap2\n      pop\n      pop\n      jump\t// out\n        /* \"#utility.yul\":3986:4721   */\n    tag_22:\n        /* \"#utility.yul\":4203:4207   */\n      0x00\n        /* \"#utility.yul\":4241:4244   */\n      0x80\n        /* \"#utility.yul\":4230:4239   */\n      dup3\n        /* \"#utility.yul\":4226:4245   */\n      add\n        /* \"#utility.yul\":4218:4245   */\n      swap1\n      pop\n        /* \"#utility.yul\":4255:4326   */\n      tag_170\n        /* \"#utility.yul\":4323:4324   */\n      0x00\n        /* \"#utility.yul\":4312:4321   */\n      dup4\n        /* \"#utility.yul\":4308:4325   */\n      add\n        /* \"#utility.yul\":4299:4305   */\n      dup8\n        /* \"#utility.yul\":4255:4326   */\n      tag_86\n      jump\t// in\n    tag_170:\n        /* \"#utility.yul\":4373:4382   */\n      dup2\n        /* \"#utility.yul\":4367:4371   */\n      dup2\n        /* \"#utility.yul\":4363:4383   */\n      sub\n        /* \"#utility.yul\":4358:4360   */\n      0x20\n        /* \"#utility.yul\":4347:4356   */\n      dup4\n        /* \"#utility.yul\":4343:4361   */\n      add\n        /* \"#utility.yul\":4336:4384   */\n      mstore\n        /* \"#utility.yul\":4401:4479   */\n      tag_171\n        /* \"#utility.yul\":4474:4478   */\n      dup2\n        /* \"#utility.yul\":4465:4471   */\n      dup7\n        /* \"#utility.yul\":4401:4479   */\n      tag_99\n      jump\t// in\n    tag_171:\n        /* \"#utility.yul\":4393:4479   */\n      swap1\n      pop\n        /* \"#utility.yul\":4489:4561   */\n      tag_172\n        /* \"#utility.yul\":4557:4559   */\n      0x40\n        /* \"#utility.yul\":4546:4555   */\n      dup4\n        /* \"#utility.yul\":4542:4560   */\n      add\n        /* \"#utility.yul\":4533:4539   */\n      dup6\n        /* \"#utility.yul\":4489:4561   */\n      tag_86\n      jump\t// in\n    tag_172:\n        /* \"#utility.yul\":4608:4617   */\n      dup2\n        /* \"#utility.yul\":4602:4606   */\n      dup2\n        /* \"#utility.yul\":4598:4618   */\n      sub\n        /* \"#utility.yul\":4593:4595   */\n      0x60\n        /* \"#utility.yul\":4582:4591   */\n      dup4\n        /* \"#utility.yul\":4578:4596   */\n      add\n        /* \"#utility.yul\":4571:4619   */\n      mstore\n        /* \"#utility.yul\":4636:4714   */\n      tag_173\n        /* \"#utility.yul\":4709:4713   */\n      dup2\n        /* \"#utility.yul\":4700:4706   */\n      dup5\n        /* \"#utility.yul\":4636:4714   */\n      tag_99\n      jump\t// in\n    tag_173:\n        /* \"#utility.yul\":4628:4714   */\n      swap1\n      pop\n        /* \"#utility.yul\":3986:4721   */\n      swap6\n      swap5\n      pop\n      pop\n      pop\n      pop\n      pop\n      jump\t// out\n        /* \"#utility.yul\":4727:4949   */\n    tag_27:\n        /* \"#utility.yul\":4820:4824   */\n      0x00\n        /* \"#utility.yul\":4858:4860   */\n      0x20\n        /* \"#utility.yul\":4847:4856   */\n      dup3\n        /* \"#utility.yul\":4843:4861   */\n      add\n        /* \"#utility.yul\":4835:4861   */\n      swap1\n      pop\n        /* \"#utility.yul\":4871:4942   */\n      tag_175\n        /* \"#utility.yul\":4939:4940   */\n      0x00\n        /* \"#utility.yul\":4928:4937   */\n      dup4\n        /* \"#utility.yul\":4924:4941   */\n      add\n        /* \"#utility.yul\":4915:4921   */\n      dup5\n        /* \"#utility.yul\":4871:4942   */\n      tag_86\n      jump\t// in\n    tag_175:\n        /* \"#utility.yul\":4727:4949   */\n      swap3\n      swap2\n      pop\n      pop\n      jump\t// out\n        /* \"#utility.yul\":4955:5072   */\n    tag_100:\n        /* \"#utility.yul\":5064:5065   */\n      0x00\n        /* \"#utility.yul\":5061:5062   */\n      0x00\n        /* \"#utility.yul\":5054:5066   */\n      revert\n        /* \"#utility.yul\":5078:5195   */\n    tag_101:\n        /* \"#utility.yul\":5187:5188   */\n      0x00\n        /* \"#utility.yul\":5184:5185   */\n      0x00\n        /* \"#utility.yul\":5177:5189   */\n      revert\n        /* \"#utility.yul\":5201:5381   */\n    tag_102:\n        /* \"#utility.yul\":5249:5326   */\n      0x4e487b7100000000000000000000000000000000000000000000000000000000\n        /* \"#utility.yul\":5246:5247   */\n      0x00\n        /* \"#utility.yul\":5239:5327   */\n      mstore\n        /* \"#utility.yul\":5346:5350   */\n      0x41\n        /* \"#utility.yul\":5343:5344   */\n      0x04\n        /* \"#utility.yul\":5336:5351   */\n      mstore\n        /* \"#utility.yul\":5370:5374   */\n      0x24\n        /* \"#utility.yul\":5367:5368   */\n      0x00\n        /* \"#utility.yul\":5360:5375   */\n      revert\n        /* \"#utility.yul\":5387:5668   */\n    tag_103:\n        /* \"#utility.yul\":5470:5497   */\n      tag_180\n        /* \"#utility.yul\":5492:5496   */\n      dup3\n        /* \"#utility.yul\":5470:5497   */\n      tag_89\n      jump\t// in\n    tag_180:\n        /* \"#utility.yul\":5462:5468   */\n      dup2\n        /* \"#utility.yul\":5458:5498   */\n      add\n        /* \"#utility.yul\":5600:5606   */\n      dup2\n        /* \"#utility.yul\":5588:5598   */\n      dup2\n        /* \"#utility.yul\":5585:5607   */\n      lt\n        /* \"#utility.yul\":5564:5582   */\n      0xffffffffffffffff\n        /* \"#utility.yul\":5552:5562   */\n      dup3\n        /* \"#utility.yul\":5549:5583   */\n      gt\n        /* \"#utility.yul\":5546:5608   */\n      or\n        /* \"#utility.yul\":5543:5631   */\n      iszero\n      tag_181\n      jumpi\n        /* \"#utility.yul\":5611:5629   */\n      tag_182\n      tag_102\n      jump\t// in\n    tag_182:\n        /* \"#utility.yul\":5543:5631   */\n    tag_181:\n        /* \"#utility.yul\":5651:5661   */\n      dup1\n        /* \"#utility.yul\":5647:5649   */\n      0x40\n        /* \"#utility.yul\":5640:5662   */\n      mstore\n        /* \"#utility.yul\":5430:5668   */\n      pop\n        /* \"#utility.yul\":5387:5668   */\n      pop\n      pop\n      jump\t// out\n        /* \"#utility.yul\":5674:5803   */\n    tag_104:\n        /* \"#utility.yul\":5708:5714   */\n      0x00\n        /* \"#utility.yul\":5735:5755   */\n      tag_184\n      tag_91\n      jump\t// in\n    tag_184:\n        /* \"#utility.yul\":5725:5755   */\n      swap1\n      pop\n        /* \"#utility.yul\":5764:5797   */\n      tag_185\n        /* \"#utility.yul\":5792:5796   */\n      dup3\n        /* \"#utility.yul\":5784:5790   */\n      dup3\n        /* \"#utility.yul\":5764:5797   */\n      tag_103\n      jump\t// in\n    tag_185:\n        /* \"#utility.yul\":5674:5803   */\n      swap2\n      swap1\n      pop\n      jump\t// out\n        /* \"#utility.yul\":5809:6117   */\n    tag_105:\n        /* \"#utility.yul\":5871:5875   */\n      0x00\n        /* \"#utility.yul\":5961:5979   */\n      0xffffffffffffffff\n        /* \"#utility.yul\":5953:5959   */\n      dup3\n        /* \"#utility.yul\":5950:5980   */\n      gt\n        /* \"#utility.yul\":5947:6003   */\n      iszero\n      tag_187\n      jumpi\n        /* \"#utility.yul\":5983:6001   */\n      tag_188\n      tag_102\n      jump\t// in\n    tag_188:\n        /* \"#utility.yul\":5947:6003   */\n    tag_187:\n        /* \"#utility.yul\":6021:6050   */\n      tag_189\n        /* \"#utility.yul\":6043:6049   */\n      dup3\n        /* \"#utility.yul\":6021:6050   */\n      tag_89\n      jump\t// in\n    tag_189:\n        /* \"#utility.yul\":6013:6050   */\n      swap1\n      pop\n        /* \"#utility.yul\":6105:6109   */\n      0x20\n        /* \"#utility.yul\":6099:6103   */\n      dup2\n        /* \"#utility.yul\":6095:6110   */\n      add\n        /* \"#utility.yul\":6087:6110   */\n      swap1\n      pop\n        /* \"#utility.yul\":5809:6117   */\n      swap2\n      swap1\n      pop\n      jump\t// out\n        /* \"#utility.yul\":6123:6548   */\n    tag_106:\n        /* \"#utility.yul\":6201:6206   */\n      0x00\n        /* \"#utility.yul\":6226:6292   */\n      tag_191\n        /* \"#utility.yul\":6242:6291   */\n      tag_192\n        /* \"#utility.yul\":6284:6290   */\n      dup5\n        /* \"#utility.yul\":6242:6291   */\n      tag_105\n      jump\t// in\n    tag_192:\n        /* \"#utility.yul\":6226:6292   */\n      tag_104\n      jump\t// in\n    tag_191:\n        /* \"#utility.yul\":6217:6292   */\n      swap1\n      pop\n        /* \"#utility.yul\":6315:6321   */\n      dup3\n        /* \"#utility.yul\":6308:6313   */\n      dup2\n        /* \"#utility.yul\":6301:6322   */\n      mstore\n        /* \"#utility.yul\":6353:6357   */\n      0x20\n        /* \"#utility.yul\":6346:6351   */\n      dup2\n        /* \"#utility.yul\":6342:6358   */\n      add\n        /* \"#utility.yul\":6391:6394   */\n      dup5\n        /* \"#utility.yul\":6382:6388   */\n      dup5\n        /* \"#utility.yul\":6377:6380   */\n      dup5\n        /* \"#utility.yul\":6373:6389   */\n      add\n        /* \"#utility.yul\":6370:6395   */\n      gt\n        /* \"#utility.yul\":6367:6479   */\n      iszero\n      tag_193\n      jumpi\n        /* \"#utility.yul\":6398:6477   */\n      tag_194\n      tag_101\n      jump\t// in\n    tag_194:\n        /* \"#utility.yul\":6367:6479   */\n    tag_193:\n        /* \"#utility.yul\":6488:6542   */\n      tag_195\n        /* \"#utility.yul\":6535:6541   */\n      dup5\n        /* \"#utility.yul\":6530:6533   */\n      dup3\n        /* \"#utility.yul\":6525:6528   */\n      dup6\n        /* \"#utility.yul\":6488:6542   */\n      tag_88\n      jump\t// in\n    tag_195:\n        /* \"#utility.yul\":6207:6548   */\n      pop\n        /* \"#utility.yul\":6123:6548   */\n      swap4\n      swap3\n      pop\n      pop\n      pop\n      jump\t// out\n        /* \"#utility.yul\":6568:6908   */\n    tag_107:\n        /* \"#utility.yul\":6624:6629   */\n      0x00\n        /* \"#utility.yul\":6673:6676   */\n      dup3\n        /* \"#utility.yul\":6666:6670   */\n      0x1f\n        /* \"#utility.yul\":6658:6664   */\n      dup4\n        /* \"#utility.yul\":6654:6671   */\n      add\n        /* \"#utility.yul\":6650:6677   */\n      slt\n        /* \"#utility.yul\":6640:6762   */\n      tag_197\n      jumpi\n        /* \"#utility.yul\":6681:6760   */\n      tag_198\n      tag_100\n      jump\t// in\n    tag_198:\n        /* \"#utility.yul\":6640:6762   */\n    tag_197:\n        /* \"#utility.yul\":6798:6804   */\n      dup2\n        /* \"#utility.yul\":6785:6805   */\n      calldataload\n        /* \"#utility.yul\":6823:6902   */\n      tag_199\n        /* \"#utility.yul\":6898:6901   */\n      dup5\n        /* \"#utility.yul\":6890:6896   */\n      dup3\n        /* \"#utility.yul\":6883:6887   */\n      0x20\n        /* \"#utility.yul\":6875:6881   */\n      dup7\n        /* \"#utility.yul\":6871:6888   */\n      add\n        /* \"#utility.yul\":6823:6902   */\n      tag_106\n      jump\t// in\n    tag_199:\n        /* \"#utility.yul\":6814:6902   */\n      swap2\n      pop\n        /* \"#utility.yul\":6630:6908   */\n      pop\n        /* \"#utility.yul\":6568:6908   */\n      swap3\n      swap2\n      pop\n      pop\n      jump\t// out\n        /* \"#utility.yul\":6914:8039   */\n    tag_31:\n        /* \"#utility.yul\":7020:7026   */\n      0x00\n        /* \"#utility.yul\":7028:7034   */\n      0x00\n        /* \"#utility.yul\":7036:7042   */\n      0x00\n        /* \"#utility.yul\":7044:7050   */\n      0x00\n        /* \"#utility.yul\":7093:7096   */\n      0x80\n        /* \"#utility.yul\":7081:7090   */\n      dup6\n        /* \"#utility.yul\":7072:7079   */\n      dup8\n        /* \"#utility.yul\":7068:7091   */\n      sub\n        /* \"#utility.yul\":7064:7097   */\n      slt\n        /* \"#utility.yul\":7061:7181   */\n      iszero\n      tag_201\n      jumpi\n        /* \"#utility.yul\":7100:7179   */\n      tag_202\n      tag_92\n      jump\t// in\n    tag_202:\n        /* \"#utility.yul\":7061:7181   */\n    tag_201:\n        /* \"#utility.yul\":7220:7221   */\n      0x00\n        /* \"#utility.yul\":7245:7298   */\n      tag_203\n        /* \"#utility.yul\":7290:7297   */\n      dup8\n        /* \"#utility.yul\":7281:7287   */\n      dup3\n        /* \"#utility.yul\":7270:7279   */\n      dup9\n        /* \"#utility.yul\":7266:7288   */\n      add\n        /* \"#utility.yul\":7245:7298   */\n      tag_95\n      jump\t// in\n    tag_203:\n        /* \"#utility.yul\":7235:7298   */\n      swap5\n      pop\n        /* \"#utility.yul\":7191:7308   */\n      pop\n        /* \"#utility.yul\":7375:7377   */\n      0x20\n        /* \"#utility.yul\":7364:7373   */\n      dup6\n        /* \"#utility.yul\":7360:7378   */\n      add\n        /* \"#utility.yul\":7347:7379   */\n      calldataload\n        /* \"#utility.yul\":7406:7424   */\n      0xffffffffffffffff\n        /* \"#utility.yul\":7398:7404   */\n      dup2\n        /* \"#utility.yul\":7395:7425   */\n      gt\n        /* \"#utility.yul\":7392:7509   */\n      iszero\n      tag_204\n      jumpi\n        /* \"#utility.yul\":7428:7507   */\n      tag_205\n      tag_93\n      jump\t// in\n    tag_205:\n        /* \"#utility.yul\":7392:7509   */\n    tag_204:\n        /* \"#utility.yul\":7533:7596   */\n      tag_206\n        /* \"#utility.yul\":7588:7595   */\n      dup8\n        /* \"#utility.yul\":7579:7585   */\n      dup3\n        /* \"#utility.yul\":7568:7577   */\n      dup9\n        /* \"#utility.yul\":7564:7586   */\n      add\n        /* \"#utility.yul\":7533:7596   */\n      tag_107\n      jump\t// in\n    tag_206:\n        /* \"#utility.yul\":7523:7596   */\n      swap4\n      pop\n        /* \"#utility.yul\":7318:7606   */\n      pop\n        /* \"#utility.yul\":7645:7647   */\n      0x40\n        /* \"#utility.yul\":7671:7724   */\n      tag_207\n        /* \"#utility.yul\":7716:7723   */\n      dup8\n        /* \"#utility.yul\":7707:7713   */\n      dup3\n        /* \"#utility.yul\":7696:7705   */\n      dup9\n        /* \"#utility.yul\":7692:7714   */\n      add\n        /* \"#utility.yul\":7671:7724   */\n      tag_95\n      jump\t// in\n    tag_207:\n        /* \"#utility.yul\":7661:7724   */\n      swap3\n      pop\n        /* \"#utility.yul\":7616:7734   */\n      pop\n        /* \"#utility.yul\":7801:7803   */\n      0x60\n        /* \"#utility.yul\":7790:7799   */\n      dup6\n        /* \"#utility.yul\":7786:7804   */\n      add\n        /* \"#utility.yul\":7773:7805   */\n      calldataload\n        /* \"#utility.yul\":7832:7850   */\n      0xffffffffffffffff\n        /* \"#utility.yul\":7824:7830   */\n      dup2\n        /* \"#utility.yul\":7821:7851   */\n      gt\n        /* \"#utility.yul\":7818:7935   */\n      iszero\n      tag_208\n      jumpi\n        /* \"#utility.yul\":7854:7933   */\n      tag_209\n      tag_93\n      jump\t// in\n    tag_209:\n        /* \"#utility.yul\":7818:7935   */\n    tag_208:\n        /* \"#utility.yul\":7959:8022   */\n      tag_210\n        /* \"#utility.yul\":8014:8021   */\n      dup8\n        /* \"#utility.yul\":8005:8011   */\n      dup3\n        /* \"#utility.yul\":7994:8003   */\n      dup9\n        /* \"#utility.yul\":7990:8012   */\n      add\n        /* \"#utility.yul\":7959:8022   */\n      tag_107\n      jump\t// in\n    tag_210:\n        /* \"#utility.yul\":7949:8022   */\n      swap2\n      pop\n        /* \"#utility.yul\":7744:8032   */\n      pop\n        /* \"#utility.yul\":6914:8039   */\n      swap3\n      swap6\n      swap2\n      swap5\n      pop\n      swap3\n      pop\n      jump\t// out\n        /* \"#utility.yul\":8045:8267   */\n    tag_42:\n        /* \"#utility.yul\":8138:8142   */\n      0x00\n        /* \"#utility.yul\":8176:8178   */\n      0x20\n        /* \"#utility.yul\":8165:8174   */\n      dup3\n        /* \"#utility.yul\":8161:8179   */\n      add\n        /* \"#utility.yul\":8153:8179   */\n      swap1\n      pop\n        /* \"#utility.yul\":8189:8260   */\n      tag_212\n        /* \"#utility.yul\":8257:8258   */\n      0x00\n        /* \"#utility.yul\":8246:8255   */\n      dup4\n        /* \"#utility.yul\":8242:8259   */\n      add\n        /* \"#utility.yul\":8233:8239   */\n      dup5\n        /* \"#utility.yul\":8189:8260   */\n      tag_84\n      jump\t// in\n    tag_212:\n        /* \"#utility.yul\":8045:8267   */\n      swap3\n      swap2\n      pop\n      pop\n      jump\t// out\n        /* \"#utility.yul\":8273:8453   */\n    tag_108:\n        /* \"#utility.yul\":8321:8398   */\n      0x4e487b7100000000000000000000000000000000000000000000000000000000\n        /* \"#utility.yul\":8318:8319   */\n      0x00\n        /* \"#utility.yul\":8311:8399   */\n      mstore\n        /* \"#utility.yul\":8418:8422   */\n      0x22\n        /* \"#utility.yul\":8415:8416   */\n      0x04\n        /* \"#utility.yul\":8408:8423   */\n      mstore\n        /* \"#utility.yul\":8442:8446   */\n      0x24\n        /* \"#utility.yul\":8439:8440   */\n      0x00\n        /* \"#utility.yul\":8432:8447   */\n      revert\n        /* \"#utility.yul\":8459:8779   */\n    tag_46:\n        /* \"#utility.yul\":8503:8509   */\n      0x00\n        /* \"#utility.yul\":8540:8541   */\n      0x02\n        /* \"#utility.yul\":8534:8538   */\n      dup3\n        /* \"#utility.yul\":8530:8542   */\n      div\n        /* \"#utility.yul\":8520:8542   */\n      swap1\n      pop\n        /* \"#utility.yul\":8587:8588   */\n      0x01\n        /* \"#utility.yul\":8581:8585   */\n      dup3\n        /* \"#utility.yul\":8577:8589   */\n      and\n        /* \"#utility.yul\":8608:8626   */\n      dup1\n        /* \"#utility.yul\":8598:8679   */\n      tag_215\n      jumpi\n        /* \"#utility.yul\":8664:8668   */\n      0x7f\n        /* \"#utility.yul\":8656:8662   */\n      dup3\n        /* \"#utility.yul\":8652:8669   */\n      and\n        /* \"#utility.yul\":8642:8669   */\n      swap2\n      pop\n        /* \"#utility.yul\":8598:8679   */\n    tag_215:\n        /* \"#utility.yul\":8726:8728   */\n      0x20\n        /* \"#utility.yul\":8718:8724   */\n      dup3\n        /* \"#utility.yul\":8715:8729   */\n      lt\n        /* \"#utility.yul\":8695:8713   */\n      dup2\n        /* \"#utility.yul\":8692:8730   */\n      sub\n        /* \"#utility.yul\":8689:8773   */\n      tag_216\n      jumpi\n        /* \"#utility.yul\":8745:8763   */\n      tag_217\n      tag_108\n      jump\t// in\n    tag_217:\n        /* \"#utility.yul\":8689:8773   */\n    tag_216:\n        /* \"#utility.yul\":8510:8779   */\n      pop\n        /* \"#utility.yul\":8459:8779   */\n      swap2\n      swap1\n      pop\n      jump\t// out\n        /* \"#utility.yul\":8785:8926   */\n    tag_109:\n        /* \"#utility.yul\":8834:8838   */\n      0x00\n        /* \"#utility.yul\":8857:8860   */\n      dup2\n        /* \"#utility.yul\":8849:8860   */\n      swap1\n      pop\n        /* \"#utility.yul\":8880:8883   */\n      dup2\n        /* \"#utility.yul\":8877:8878   */\n      0x00\n        /* \"#utility.yul\":8870:8884   */\n      mstore\n        /* \"#utility.yul\":8914:8918   */\n      0x20\n        /* \"#utility.yul\":8911:8912   */\n      0x00\n        /* \"#utility.yul\":8901:8919   */\n      keccak256\n        /* \"#utility.yul\":8893:8919   */\n      swap1\n      pop\n        /* \"#utility.yul\":8785:8926   */\n      swap2\n      swap1\n      pop\n      jump\t// out\n        /* \"#utility.yul\":8932:9025   */\n    tag_110:\n        /* \"#utility.yul\":8969:8975   */\n      0x00\n        /* \"#utility.yul\":9016:9018   */\n      0x20\n        /* \"#utility.yul\":9011:9013   */\n      0x1f\n        /* \"#utility.yul\":9004:9009   */\n      dup4\n        /* \"#utility.yul\":9000:9014   */\n      add\n        /* \"#utility.yul\":8996:9019   */\n      div\n        /* \"#utility.yul\":8986:9019   */\n      swap1\n      pop\n        /* \"#utility.yul\":8932:9025   */\n      swap2\n      swap1\n      pop\n      jump\t// out\n        /* \"#utility.yul\":9031:9138   */\n    tag_111:\n        /* \"#utility.yul\":9075:9083   */\n      0x00\n        /* \"#utility.yul\":9125:9130   */\n      dup3\n        /* \"#utility.yul\":9119:9123   */\n      dup3\n        /* \"#utility.yul\":9115:9131   */\n      shl\n        /* \"#utility.yul\":9094:9131   */\n      swap1\n      pop\n        /* \"#utility.yul\":9031:9138   */\n      swap3\n      swap2\n      pop\n      pop\n      jump\t// out\n        /* \"#utility.yul\":9144:9537   */\n    tag_112:\n        /* \"#utility.yul\":9213:9219   */\n      0x00\n        /* \"#utility.yul\":9263:9264   */\n      0x08\n        /* \"#utility.yul\":9251:9261   */\n      dup4\n        /* \"#utility.yul\":9247:9265   */\n      mul\n        /* \"#utility.yul\":9286:9383   */\n      tag_222\n        /* \"#utility.yul\":9316:9382   */\n      0xffffffffffffffffffffffffffffffffffffffffffffffffffffffffffffffff\n        /* \"#utility.yul\":9305:9314   */\n      dup3\n        /* \"#utility.yul\":9286:9383   */\n      tag_111\n      jump\t// in\n    tag_222:\n        /* \"#utility.yul\":9404:9443   */\n      tag_223\n        /* \"#utility.yul\":9434:9442   */\n      dup7\n        /* \"#utility.yul\":9423:9432   */\n      dup4\n        /* \"#utility.yul\":9404:9443   */\n      tag_111\n      jump\t// in\n    tag_223:\n        /* \"#utility.yul\":9392:9443   */\n      swap6\n      pop\n        /* \"#utility.yul\":9476:9480   */\n      dup1\n        /* \"#utility.yul\":9472:9481   */\n      not\n        /* \"#utility.yul\":9465:9470   */\n      dup5\n        /* \"#utility.yul\":9461:9482   */\n      and\n        /* \"#utility.yul\":9452:9482   */\n      swap4\n      pop\n        /* \"#utility.yul\":9525:9529   */\n      dup1\n        /* \"#utility.yul\":9515:9523   */\n      dup7\n        /* \"#utility.yul\":9511:9530   */\n      and\n        /* \"#utility.yul\":9504:9509   */\n      dup5\n        /* \"#utility.yul\":9501:9531   */\n      or\n        /* \"#utility.yul\":9491:9531   */\n      swap3\n      pop\n        /* \"#utility.yul\":9220:9537   */\n      pop\n      pop\n        /* \"#utility.yul\":9144:9537   */\n      swap4\n      swap3\n      pop\n      pop\n      pop\n      jump\t// out\n        /* \"#utility.yul\":9543:9603   */\n    tag_113:\n        /* \"#utility.yul\":9571:9574   */\n      0x00\n        /* \"#utility.yul\":9592:9597   */\n      dup2\n        /* \"#utility.yul\":9585:9597   */\n      swap1\n      pop\n        /* \"#utility.yul\":9543:9603   */\n      swap2\n      swap1\n      pop\n      jump\t// out\n        /* \"#utility.yul\":9609:9751   */\n    tag_114:\n        /* \"#utility.yul\":9659:9668   */\n      0x00\n        /* \"#utility.yul\":9692:9745   */\n      tag_226\n        /* \"#utility.yul\":9710:9744   */\n      tag_227\n        /* \"#utility.yul\":9719:9743   */\n      tag_228\n        /* \"#utility.yul\":9737:9742   */\n      dup5\n        /* \"#utility.yul\":9719:9743   */\n      tag_85\n      jump\t// in\n    tag_228:\n        /* \"#utility.yul\":9710:9744   */\n      tag_113\n      jump\t// in\n    tag_227:\n        /* \"#utility.yul\":9692:9745   */\n      tag_85\n      jump\t// in\n    tag_226:\n        /* \"#utility.yul\":9679:9745   */\n      swap1\n      pop\n        /* \"#utility.yul\":9609:9751   */\n      swap2\n      swap1\n      pop\n      jump\t// out\n        /* \"#utility.yul\":9757:9832   */\n    tag_115:\n        /* \"#utility.yul\":9800:9803   */\n      0x00\n        /* \"#utility.yul\":9821:9826   */\n      dup2\n        /* \"#utility.yul\":9814:9826   */\n      swap1\n      pop\n        /* \"#utility.yul\":9757:9832   */\n      swap2\n      swap1\n      pop\n      jump\t// out\n        /* \"#utility.yul\":9838:10107   */\n    tag_116:\n        /* \"#utility.yul\":9948:9987   */\n      tag_231\n        /* \"#utility.yul\":9979:9986   */\n      dup4\n        /* \"#utility.yul\":9948:9987   */\n      tag_114\n      jump\t// in\n    tag_231:\n        /* \"#utility.yul\":10009:10100   */\n      tag_232\n        /* \"#utility.yul\":10058:10099   */\n      tag_233\n        /* \"#utility.yul\":10082:10098   */\n      dup3\n        /* \"#utility.yul\":10058:10099   */\n      tag_115\n      jump\t// in\n    tag_233:\n        /* \"#utility.yul\":10050:10056   */\n      dup5\n        /* \"#utility.yul\":10043:10047   */\n      dup5\n        /* \"#utility.yul\":10037:10048   */\n      sload\n        /* \"#utility.yul\":10009:10100   */\n      tag_112\n      jump\t// in\n    tag_232:\n        /* \"#utility.yul\":10003:10007   */\n      dup3\n        /* \"#utility.yul\":9996:10101   */\n      sstore\n        /* \"#utility.yul\":9914:10107   */\n      pop\n        /* \"#utility.yul\":9838:10107   */\n      pop\n      pop\n      pop\n      jump\t// out\n        /* \"#utility.yul\":10113:10186   */\n    tag_117:\n        /* \"#utility.yul\":10158:10161   */\n      0x00\n        /* \"#utility.yul\":10179:10180   */\n      0x00\n        /* \"#utility.yul\":10172:10180   */\n      swap1\n      pop\n        /* \"#utility.yul\":10113:10186   */\n      swap1\n      jump\t// out\n        /* \"#utility.yul\":10192:10381   */\n    tag_118:\n        /* \"#utility.yul\":10269:10301   */\n      tag_236\n      tag_117\n      jump\t// in\n    tag_236:\n        /* \"#utility.yul\":10310:10375   */\n      tag_237\n        /* \"#utility.yul\":10368:10374   */\n      dup2\n        /* \"#utility.yul\":10360:10366   */\n      dup5\n        /* \"#utility.yul\":10354:10358   */\n      dup5\n        /* \"#utility.yul\":10310:10375   */\n      tag_116\n      jump\t// in\n    tag_237:\n        /* \"#utility.yul\":10245:10381   */\n      pop\n        /* \"#utility.yul\":10192:10381   */\n      pop\n      pop\n      jump\t// out\n        /* \"#utility.yul\":10387:10573   */\n    tag_119:\n        /* \"#utility.yul\":10447:10567   */\n    tag_239:\n        /* \"#utility.yul\":10464:10467   */\n      dup2\n        /* \"#utility.yul\":10457:10462   */\n      dup2\n        /* \"#utility.yul\":10454:10468   */\n      lt\n        /* \"#utility.yul\":10447:10567   */\n      iszero\n      tag_241\n      jumpi\n        /* \"#utility.yul\":10518:10557   */\n      tag_242\n        /* \"#utility.yul\":10555:10556   */\n      0x00\n        /* \"#utility.yul\":10548:10553   */\n      dup3\n        /* \"#utility.yul\":10518:10557   */\n      tag_118\n      jump\t// in\n    tag_242:\n        /* \"#utility.yul\":10491:10492   */\n      0x01\n        /* \"#utility.yul\":10484:10489   */\n      dup2\n        /* \"#utility.yul\":10480:10493   */\n      add\n        /* \"#utility.yul\":10471:10493   */\n      swap1\n      pop\n        /* \"#utility.yul\":10447:10567   */\n      jump(tag_239)\n    tag_241:\n        /* \"#utility.yul\":10387:10573   */\n      pop\n      pop\n      jump\t// out\n        /* \"#utility.yul\":10579:11122   */\n    tag_120:\n        /* \"#utility.yul\":10680:10682   */\n      0x1f\n        /* \"#utility.yul\":10675:10678   */\n      dup3\n        /* \"#utility.yul\":10672:10683   */\n      gt\n        /* \"#utility.yul\":10669:11115   */\n      iszero\n      tag_244\n      jumpi\n        /* \"#utility.yul\":10714:10752   */\n      tag_245\n        /* \"#utility.yul\":10746:10751   */\n      dup2\n        /* \"#utility.yul\":10714:10752   */\n      tag_109\n      jump\t// in\n    tag_245:\n        /* \"#utility.yul\":10798:10827   */\n      tag_246\n        /* \"#utility.yul\":10816:10826   */\n      dup5\n        /* \"#utility.yul\":10798:10827   */\n      tag_110\n      jump\t// in\n    tag_246:\n        /* \"#utility.yul\":10788:10796   */\n      dup2\n        /* \"#utility.yul\":10784:10828   */\n      add\n        /* \"#utility.yul\":10981:10983   */\n      0x20\n        /* \"#utility.yul\":10969:10979   */\n      dup6\n        /* \"#utility.yul\":10966:10984   */\n      lt\n        /* \"#utility.yul\":10963:11012   */\n      iszero\n      tag_247\n      jumpi\n        /* \"#utility.yul\":11002:11010   */\n      dup2\n        /* \"#utility.yul\":10987:11010   */\n      swap1\n      pop\n        /* \"#utility.yul\":10963:11012   */\n    tag_247:\n        /* \"#utility.yul\":11025:11105   */\n      tag_248\n        /* \"#utility.yul\":11081:11103   */\n      tag_249\n        /* \"#utility.yul\":11099:11102   */\n      dup6\n        /* \"#utility.yul\":11081:11103   */\n      tag_110\n      jump\t// in\n    tag_249:\n        /* \"#utility.yul\":11071:11079   */\n      dup4\n        /* \"#utility.yul\":11067:11104   */\n      add\n        /* \"#utility.yul\":11054:11065   */\n      dup3\n        /* \"#utility.yul\":11025:11105   */\n      tag_119\n      jump\t// in\n    tag_248:\n        /* \"#utility.yul\":10684:11115   */\n      pop\n      pop\n        /* \"#utility.yul\":10669:11115   */\n    tag_244:\n        /* \"#utility.yul\":10579:11122   */\n      pop\n      pop\n      pop\n      jump\t// out\n        /* \"#utility.yul\":11128:11245   */\n    tag_121:\n        /* \"#utility.yul\":11182:11190   */\n      0x00\n        /* \"#utility.yul\":11232:11237   */\n      dup3\n        /* \"#utility.yul\":11226:11230   */\n      dup3\n        /* \"#utility.yul\":11222:11238   */\n      shr\n        /* \"#utility.yul\":11201:11238   */\n      swap1\n      pop\n        /* \"#utility.yul\":11128:11245   */\n      swap3\n      swap2\n      pop\n      pop\n      jump\t// out\n        /* \"#utility.yul\":11251:11420   */\n    tag_122:\n        /* \"#utility.yul\":11295:11301   */\n      0x00\n        /* \"#utility.yul\":11328:11379   */\n      tag_252\n        /* \"#utility.yul\":11376:11377   */\n      0x00\n        /* \"#utility.yul\":11372:11378   */\n      not\n        /* \"#utility.yul\":11364:11369   */\n      dup5\n        /* \"#utility.yul\":11361:11362   */\n      0x08\n        /* \"#utility.yul\":11357:11370   */\n      mul\n        /* \"#utility.yul\":11328:11379   */\n      tag_121\n      jump\t// in\n    tag_252:\n        /* \"#utility.yul\":11324:11380   */\n      not\n        /* \"#utility.yul\":11409:11413   */\n      dup1\n        /* \"#utility.yul\":11403:11407   */\n      dup4\n        /* \"#utility.yul\":11399:11414   */\n      and\n        /* \"#utility.yul\":11389:11414   */\n      swap2\n      pop\n        /* \"#utility.yul\":11302:11420   */\n      pop\n        /* \"#utility.yul\":11251:11420   */\n      swap3\n      swap2\n      pop\n      pop\n      jump\t// out\n        /* \"#utility.yul\":11425:11720   */\n    tag_123:\n        /* \"#utility.yul\":11501:11505   */\n      0x00\n        /* \"#utility.yul\":11647:11676   */\n      tag_254\n        /* \"#utility.yul\":11672:11675   */\n      dup4\n        /* \"#utility.yul\":11666:11670   */\n      dup4\n        /* \"#utility.yul\":11647:11676   */\n      tag_122\n      jump\t// in\n    tag_254:\n        /* \"#utility.yul\":11639:11676   */\n      swap2\n      pop\n        /* \"#utility.yul\":11709:11712   */\n      dup3\n        /* \"#utility.yul\":11706:11707   */\n      0x02\n        /* \"#utility.yul\":11702:11713   */\n      mul\n        /* \"#utility.yul\":11696:11700   */\n      dup3\n        /* \"#utility.yul\":11693:11714   */\n      or\n        /* \"#utility.yul\":11685:11714   */\n      swap1\n      pop\n        /* \"#utility.yul\":11425:11720   */\n      swap3\n      swap2\n      pop\n      pop\n      jump\t// out\n        /* \"#utility.yul\":11725:13120   */\n    tag_60:\n        /* \"#utility.yul\":11842:11879   */\n      tag_256\n        /* \"#utility.yul\":11875:11878   */\n      dup3\n        /* \"#utility.yul\":11842:11879   */\n      tag_96\n      jump\t// in\n    tag_256:\n        /* \"#utility.yul\":11944:11962   */\n      0xffffffffffffffff\n        /* \"#utility.yul\":11936:11942   */\n      dup2\n        /* \"#utility.yul\":11933:11963   */\n      gt\n        /* \"#utility.yul\":11930:11986   */\n      iszero\n      tag_257\n      jumpi\n        /* \"#utility.yul\":11966:11984   */\n      tag_258\n      tag_102\n      jump\t// in\n    tag_258:\n        /* \"#utility.yul\":11930:11986   */\n    tag_257:\n        /* \"#utility.yul\":12010:12048   */\n      tag_259\n        /* \"#utility.yul\":12042:12046   */\n      dup3\n        /* \"#utility.yul\":12036:12047   */\n      sload\n        /* \"#utility.yul\":12010:12048   */\n      tag_46\n      jump\t// in\n    tag_259:\n        /* \"#utility.yul\":12095:12162   */\n      tag_260\n        /* \"#utility.yul\":12155:12161   */\n      dup3\n        /* \"#utility.yul\":12147:12153   */\n      dup3\n        /* \"#utility.yul\":12141:12145   */\n      dup6\n        /* \"#utility.yul\":12095:12162   */\n      tag_120\n      jump\t// in\n    tag_260:\n        /* \"#utility.yul\":12189:12190   */\n      0x00\n        /* \"#utility.yul\":12213:12217   */\n      0x20\n        /* \"#utility.yul\":12200:12217   */\n      swap1\n      pop\n        /* \"#utility.yul\":12245:12247   */\n      0x1f\n        /* \"#utility.yul\":12237:12243   */\n      dup4\n        /* \"#utility.yul\":12234:12248   */\n      gt\n        /* \"#utility.yul\":12262:12263   */\n      0x01\n        /* \"#utility.yul\":12257:12875   */\n      dup2\n      eq\n      tag_262\n      jumpi\n        /* \"#utility.yul\":12919:12920   */\n      0x00\n        /* \"#utility.yul\":12936:12942   */\n      dup5\n        /* \"#utility.yul\":12933:13010   */\n      iszero\n      tag_263\n      jumpi\n        /* \"#utility.yul\":12985:12994   */\n      dup3\n        /* \"#utility.yul\":12980:12983   */\n      dup8\n        /* \"#utility.yul\":12976:12995   */\n      add\n        /* \"#utility.yul\":12970:12996   */\n      mload\n        /* \"#utility.yul\":12961:12996   */\n      swap1\n      pop\n        /* \"#utility.yul\":12933:13010   */\n    tag_263:\n        /* \"#utility.yul\":13036:13103   */\n      tag_264\n        /* \"#utility.yul\":13096:13102   */\n      dup6\n        /* \"#utility.yul\":13089:13094   */\n      dup3\n        /* \"#utility.yul\":13036:13103   */\n      tag_123\n      jump\t// in\n    tag_264:\n        /* \"#utility.yul\":13030:13034   */\n      dup7\n        /* \"#utility.yul\":13023:13104   */\n      sstore\n        /* \"#utility.yul\":12892:13114   */\n      pop\n        /* \"#utility.yul\":12227:13114   */\n      jump(tag_261)\n        /* \"#utility.yul\":12257:12875   */\n    tag_262:\n        /* \"#utility.yul\":12309:12313   */\n      0x1f\n        /* \"#utility.yul\":12305:12314   */\n      not\n        /* \"#utility.yul\":12297:12303   */\n      dup5\n        /* \"#utility.yul\":12293:12315   */\n      and\n        /* \"#utility.yul\":12343:12380   */\n      tag_265\n        /* \"#utility.yul\":12375:12379   */\n      dup7\n        /* \"#utility.yul\":12343:12380   */\n      tag_109\n      jump\t// in\n    tag_265:\n        /* \"#utility.yul\":12402:12403   */\n      0x00\n        /* \"#utility.yul\":12416:12624   */\n    tag_266:\n        /* \"#utility.yul\":12430:12437   */\n      dup3\n        /* \"#utility.yul\":12427:12428   */\n      dup2\n        /* \"#utility.yul\":12424:12438   */\n      lt\n        /* \"#utility.yul\":12416:12624   */\n      iszero\n      tag_268\n      jumpi\n        /* \"#utility.yul\":12509:12518   */\n      dup5\n        /* \"#utility.yul\":12504:12507   */\n      dup10\n        /* \"#utility.yul\":12500:12519   */\n      add\n        /* \"#utility.yul\":12494:12520   */\n      mload\n        /* \"#utility.yul\":12486:12492   */\n      dup3\n        /* \"#utility.yul\":12479:12521   */\n      sstore\n        /* \"#utility.yul\":12560:12561   */\n      0x01\n        /* \"#utility.yul\":12552:12558   */\n      dup3\n        /* \"#utility.yul\":12548:12562   */\n      add\n        /* \"#utility.yul\":12538:12562   */\n      swap2\n      pop\n        /* \"#utility.yul\":12607:12609   */\n      0x20\n        /* \"#utility.yul\":12596:12605   */\n      dup6\n        /* \"#utility.yul\":12592:12610   */\n      add\n        /* \"#utility.yul\":12579:12610   */\n      swap5\n      pop\n        /* \"#utility.yul\":12453:12457   */\n      0x20\n        /* \"#utility.yul\":12450:12451   */\n      dup2\n        /* \"#utility.yul\":12446:12458   */\n      add\n        /* \"#utility.yul\":12441:12458   */\n      swap1\n      pop\n        /* \"#utility.yul\":12416:12624   */\n      jump(tag_266)\n    tag_268:\n        /* \"#utility.yul\":12652:12658   */\n      dup7\n        /* \"#utility.yul\":12643:12650   */\n      dup4\n        /* \"#utility.yul\":12640:12659   */\n      lt\n        /* \"#utility.yul\":12637:12816   */\n      iszero\n      tag_269\n      jumpi\n        /* \"#utility.yul\":12710:12719   */\n      dup5\n        /* \"#utility.yul\":12705:12708   */\n      dup10\n        /* \"#utility.yul\":12701:12720   */\n      add\n        /* \"#utility.yul\":12695:12721   */\n      mload\n        /* \"#utility.yul\":12753:12801   */\n      tag_270\n        /* \"#utility.yul\":12795:12799   */\n      0x1f\n        /* \"#utility.yul\":12787:12793   */\n      dup10\n        /* \"#utility.yul\":12783:12800   */\n      and\n        /* \"#utility.yul\":12772:12781   */\n      dup3\n        /* \"#utility.yul\":12753:12801   */\n      tag_122\n      jump\t// in\n    tag_270:\n        /* \"#utility.yul\":12745:12751   */\n      dup4\n        /* \"#utility.yul\":12738:12802   */\n      sstore\n        /* \"#utility.yul\":12660:12816   */\n      pop\n        /* \"#utility.yul\":12637:12816   */\n    tag_269:\n        /* \"#utility.yul\":12862:12863   */\n      0x01\n        /* \"#utility.yul\":12858:12859   */\n      0x02\n        /* \"#utility.yul\":12850:12856   */\n      dup9\n        /* \"#utility.yul\":12846:12860   */\n      mul\n        /* \"#utility.yul\":12842:12864   */\n      add\n        /* \"#utility.yul\":12836:12840   */\n      dup9\n        /* \"#utility.yul\":12829:12865   */\n      sstore\n        /* \"#utility.yul\":12264:12875   */\n      pop\n      pop\n      pop\n        /* \"#utility.yul\":12227:13114   */\n    tag_261:\n      pop\n        /* \"#utility.yul\":11817:13120   */\n      pop\n      pop\n      pop\n        /* \"#utility.yul\":11725:13120   */\n      pop\n      pop\n      jump\t// out\n        /* \"#utility.yul\":13126:13549   */\n    tag_63:\n        /* \"#utility.yul\":13267:13271   */\n      0x00\n        /* \"#utility.yul\":13305:13307   */\n      0x40\n        /* \"#utility.yul\":13294:13303   */\n      dup3\n        /* \"#utility.yul\":13290:13308   */\n      add\n        /* \"#utility.yul\":13282:13308   */\n      swap1\n      pop\n        /* \"#utility.yul\":13318:13389   */\n      tag_272\n        /* \"#utility.yul\":13386:13387   */\n      0x00\n        /* \"#utility.yul\":13375:13384   */\n      dup4\n        /* \"#utility.yul\":13371:13388   */\n      add\n        /* \"#utility.yul\":13362:13368   */\n      dup6\n        /* \"#utility.yul\":13318:13389   */\n      tag_86\n      jump\t// in\n    tag_272:\n        /* \"#utility.yul\":13436:13445   */\n      dup2\n        /* \"#utility.yul\":13430:13434   */\n      dup2\n        /* \"#utility.yul\":13426:13446   */\n      sub\n        /* \"#utility.yul\":13421:13423   */\n      0x20\n        /* \"#utility.yul\":13410:13419   */\n      dup4\n        /* \"#utility.yul\":13406:13424   */\n      add\n        /* \"#utility.yul\":13399:13447   */\n      mstore\n        /* \"#utility.yul\":13464:13542   */\n      tag_273\n        /* \"#utility.yul\":13537:13541   */\n      dup2\n        /* \"#utility.yul\":13528:13534   */\n      dup5\n        /* \"#utility.yul\":13464:13542   */\n      tag_99\n      jump\t// in\n    tag_273:\n        /* \"#utility.yul\":13456:13542   */\n      swap1\n      pop\n        /* \"#utility.yul\":13126:13549   */\n      swap4\n      swap3\n      pop\n      pop\n      pop\n      jump\t// out\n        /* \"#utility.yul\":13555:13718   */\n    tag_124:\n        /* \"#utility.yul\":13695:13710   */\n      0x496e76616c696420696e64657800000000000000000000000000000000000000\n        /* \"#utility.yul\":13691:13692   */\n      0x00\n        /* \"#utility.yul\":13683:13689   */\n      dup3\n        /* \"#utility.yul\":13679:13693   */\n      add\n        /* \"#utility.yul\":13672:13711   */\n      mstore\n        /* \"#utility.yul\":13555:13718   */\n      pop\n      jump\t// out\n        /* \"#utility.yul\":13724:14090   */\n    tag_125:\n        /* \"#utility.yul\":13866:13869   */\n      0x00\n        /* \"#utility.yul\":13887:13954   */\n      tag_276\n        /* \"#utility.yul\":13951:13953   */\n      0x0d\n        /* \"#utility.yul\":13946:13949   */\n      dup4\n        /* \"#utility.yul\":13887:13954   */\n      tag_97\n      jump\t// in\n    tag_276:\n        /* \"#utility.yul\":13880:13954   */\n      swap2\n      pop\n        /* \"#utility.yul\":13963:14056   */\n      tag_277\n        /* \"#utility.yul\":14052:14055   */\n      dup3\n        /* \"#utility.yul\":13963:14056   */\n      tag_124\n      jump\t// in\n    tag_277:\n        /* \"#utility.yul\":14081:14083   */\n      0x20\n        /* \"#utility.yul\":14076:14079   */\n      dup3\n        /* \"#utility.yul\":14072:14084   */\n      add\n        /* \"#utility.yul\":14065:14084   */\n      swap1\n      pop\n        /* \"#utility.yul\":13724:14090   */\n      swap2\n      swap1\n      pop\n      jump\t// out\n        /* \"#utility.yul\":14096:14515   */\n    tag_67:\n        /* \"#utility.yul\":14262:14266   */\n      0x00\n        /* \"#utility.yul\":14300:14302   */\n      0x20\n        /* \"#utility.yul\":14289:14298   */\n      dup3\n        /* \"#utility.yul\":14285:14303   */\n      add\n        /* \"#utility.yul\":14277:14303   */\n      swap1\n      pop\n        /* \"#utility.yul\":14349:14358   */\n      dup2\n        /* \"#utility.yul\":14343:14347   */\n      dup2\n        /* \"#utility.yul\":14339:14359   */\n      sub\n        /* \"#utility.yul\":14335:14336   */\n      0x00\n        /* \"#utility.yul\":14324:14333   */\n      dup4\n        /* \"#utility.yul\":14320:14337   */\n      add\n        /* \"#utility.yul\":14313:14360   */\n      mstore\n        /* \"#utility.yul\":14377:14508   */\n      tag_279\n        /* \"#utility.yul\":14503:14507   */\n      dup2\n        /* \"#utility.yul\":14377:14508   */\n      tag_125\n      jump\t// in\n    tag_279:\n        /* \"#utility.yul\":14369:14508   */\n      swap1\n      pop\n        /* \"#utility.yul\":14096:14515   */\n      swap2\n      swap1\n      pop\n      jump\t// out\n        /* \"#utility.yul\":14521:14701   */\n    tag_70:\n        /* \"#utility.yul\":14569:14646   */\n      0x4e487b7100000000000000000000000000000000000000000000000000000000\n        /* \"#utility.yul\":14566:14567   */\n      0x00\n        /* \"#utility.yul\":14559:14647   */\n      mstore\n        /* \"#utility.yul\":14666:14670   */\n      0x32\n        /* \"#utility.yul\":14663:14664   */\n      0x04\n        /* \"#utility.yul\":14656:14671   */\n      mstore\n        /* \"#utility.yul\":14690:14694   */\n      0x24\n        /* \"#utility.yul\":14687:14688   */\n      0x00\n        /* \"#utility.yul\":14680:14695   */\n      revert\n\n    auxdata: 0xa264697066735822122005da87c446c4442b23e2d78aa0a8521962176540a139c8255b9e5959fc2fe7b064736f6c634300081e0033\n}\n",
				"bytecode": {
					"linkReferences": {},
					"object": "6080604052348015600e575f5ffd5b503360015f6101000a81548173ffffffffffffffffffffffffffffffffffffffff021916908373ffffffffffffffffffffffffffffffffffffffff160217905550610db58061005c5f395ff3fe60806040526004361061004d575f3560e01c806306ead22e146100cc57806328bcb51a1461010b5780635900fe9f14610135578063642f91631461015d5780638da5cb5b1461019c5761008d565b3661008d577f88a5966d370b9919b20f3e2c13ff65706f196a4e32cc2c12bf57088f88525874333460405161008392919061062e565b60405180910390a1005b7faca09dd456ca888dccf8cc966e382e6e3042bb7e4d2d7815015f844edeafce4233345f366040516100c294939291906106af565b60405180910390a1005b3480156100d7575f5ffd5b506100f260048036038101906100ed9190610728565b6101c6565b60405161010294939291906107b3565b60405180910390f35b348015610116575f5ffd5b5061011f61030c565b60405161012c9190610804565b60405180910390f35b348015610140575f5ffd5b5061015b6004803603810190610156919061093b565b610317565b005b348015610168575f5ffd5b50610183600480360381019061017e9190610728565b6103e3565b60405161019394939291906107b3565b60405180910390f35b3480156101a7575f5ffd5b506101b06105b2565b6040516101bd91906109d7565b60405180910390f35b5f81815481106101d4575f80fd5b905f5260205f2090600402015f91509050805f0154908060010180546101f990610a1d565b80601f016020809104026020016040519081016040528092919081815260200182805461022590610a1d565b80156102705780601f1061024757610100808354040283529160200191610270565b820191905f5260205f20905b81548152906001019060200180831161025357829003601f168201915b50505050509080600201549080600301805461028b90610a1d565b80601f01602080910402602001604051908101604052809291908181526020018280546102b790610a1d565b80156103025780601f106102d957610100808354040283529160200191610302565b820191905f5260205f20905b8154815290600101906020018083116102e557829003601f168201915b5050505050905084565b5f5f80549050905090565b5f60405180608001604052808681526020018581526020018481526020018381525090505f81908060018154018082558091505060019003905f5260205f2090600402015f909190919091505f820151815f015560208201518160010190816103809190610bed565b506040820151816002015560608201518160030190816103a09190610bed565b5050507f9682c9a3e9734a1f8d3a641838a5d7862f4eb29fcbf4bd04e0ccac28ffcfd22785856040516103d4929190610cbc565b60405180910390a15050505050565b5f60605f60605f80549050851061042f576040517f08c379a000000000000000000000000000000000000000000000000000000000815260040161042690610d34565b60405180910390fd5b5f5f868154811061044357610442610d52565b5b905f5260205f2090600402016040518060800160405290815f820154815260200160018201805461047390610a1d565b80601f016020809104026020016040519081016040528092919081815260200182805461049f90610a1d565b80156104ea5780601f106104c1576101008083540402835291602001916104ea565b820191905f5260205f20905b8154815290600101906020018083116104cd57829003601f168201915b505050505081526020016002820154815260200160038201805461050d90610a1d565b80601f016020809104026020016040519081016040528092919081815260200182805461053990610a1d565b80156105845780601f1061055b57610100808354040283529160200191610584565b820191905f5260205f20905b81548152906001019060200180831161056757829003601f168201915b5050505050815250509050805f01518160200151826040015183606001519450945094509450509193509193565b60015f9054906101000a900473ffffffffffffffffffffffffffffffffffffffff1681565b5f73ffffffffffffffffffffffffffffffffffffffff82169050919050565b5f610600826105d7565b9050919050565b610610816105f6565b82525050565b5f819050919050565b61062881610616565b82525050565b5f6040820190506106415f830185610607565b61064e602083018461061f565b9392505050565b5f82825260208201905092915050565b828183375f83830152505050565b5f601f19601f8301169050919050565b5f61068e8385610655565b935061069b838584610665565b6106a483610673565b840190509392505050565b5f6060820190506106c25f830187610607565b6106cf602083018661061f565b81810360408301526106e2818486610683565b905095945050505050565b5f604051905090565b5f5ffd5b5f5ffd5b61070781610616565b8114610711575f5ffd5b50565b5f81359050610722816106fe565b92915050565b5f6020828403121561073d5761073c6106f6565b5b5f61074a84828501610714565b91505092915050565b5f81519050919050565b5f82825260208201905092915050565b8281835e5f83830152505050565b5f61078582610753565b61078f818561075d565b935061079f81856020860161076d565b6107a881610673565b840191505092915050565b5f6080820190506107c65f83018761061f565b81810360208301526107d8818661077b565b90506107e7604083018561061f565b81810360608301526107f9818461077b565b905095945050505050565b5f6020820190506108175f83018461061f565b92915050565b5f5ffd5b5f5ffd5b7f4e487b71000000000000000000000000000000000000000000000000000000005f52604160045260245ffd5b61085b82610673565b810181811067ffffffffffffffff8211171561087a57610879610825565b5b80604052505050565b5f61088c6106ed565b90506108988282610852565b919050565b5f67ffffffffffffffff8211156108b7576108b6610825565b5b6108c082610673565b9050602081019050919050565b5f6108df6108da8461089d565b610883565b9050828152602081018484840111156108fb576108fa610821565b5b610906848285610665565b509392505050565b5f82601f8301126109225761092161081d565b5b81356109328482602086016108cd565b91505092915050565b5f5f5f5f60808587031215610953576109526106f6565b5b5f61096087828801610714565b945050602085013567ffffffffffffffff811115610981576109806106fa565b5b61098d8782880161090e565b935050604061099e87828801610714565b925050606085013567ffffffffffffffff8111156109bf576109be6106fa565b5b6109cb8782880161090e565b91505092959194509250565b5f6020820190506109ea5f830184610607565b92915050565b7f4e487b71000000000000000000000000000000000000000000000000000000005f52602260045260245ffd5b5f6002820490506001821680610a3457607f821691505b602082108103610a4757610a466109f0565b5b50919050565b5f819050815f5260205f209050919050565b5f6020601f8301049050919050565b5f82821b905092915050565b5f60088302610aa97fffffffffffffffffffffffffffffffffffffffffffffffffffffffffffffffff82610a6e565b610ab38683610a6e565b95508019841693508086168417925050509392505050565b5f819050919050565b5f610aee610ae9610ae484610616565b610acb565b610616565b9050919050565b5f819050919050565b610b0783610ad4565b610b1b610b1382610af5565b848454610a7a565b825550505050565b5f5f905090565b610b32610b23565b610b3d818484610afe565b505050565b5b81811015610b6057610b555f82610b2a565b600181019050610b43565b5050565b601f821115610ba557610b7681610a4d565b610b7f84610a5f565b81016020851015610b8e578190505b610ba2610b9a85610a5f565b830182610b42565b50505b505050565b5f82821c905092915050565b5f610bc55f1984600802610baa565b1980831691505092915050565b5f610bdd8383610bb6565b9150826002028217905092915050565b610bf682610753565b67ffffffffffffffff811115610c0f57610c0e610825565b5b610c198254610a1d565b610c24828285610b64565b5f60209050601f831160018114610c55575f8415610c43578287015190505b610c4d8582610bd2565b865550610cb4565b601f198416610c6386610a4d565b5f5b82811015610c8a57848901518255600182019150602085019450602081019050610c65565b86831015610ca75784890151610ca3601f891682610bb6565b8355505b6001600288020188555050505b505050505050565b5f604082019050610ccf5f83018561061f565b8181036020830152610ce1818461077b565b90509392505050565b7f496e76616c696420696e646578000000000000000000000000000000000000005f82015250565b5f610d1e600d8361075d565b9150610d2982610cea565b602082019050919050565b5f6020820190508181035f830152610d4b81610d12565b9050919050565b7f4e487b71000000000000000000000000000000000000000000000000000000005f52603260045260245ffdfea264697066735822122005da87c446c4442b23e2d78aa0a8521962176540a139c8255b9e5959fc2fe7b064736f6c634300081e0033",
					"opcodes": "PUSH1 0x80 PUSH1 0x40 MSTORE CALLVALUE DUP1 ISZERO PUSH1 0xE JUMPI PUSH0 PUSH0 REVERT JUMPDEST POP CALLER PUSH1 0x1 PUSH0 PUSH2 0x100 EXP DUP2 SLOAD DUP2 PUSH20 0xFFFFFFFFFFFFFFFFFFFFFFFFFFFFFFFFFFFFFFFF MUL NOT AND SWAP1 DUP4 PUSH20 0xFFFFFFFFFFFFFFFFFFFFFFFFFFFFFFFFFFFFFFFF AND MUL OR SWAP1 SSTORE POP PUSH2 0xDB5 DUP1 PUSH2 0x5C PUSH0 CODECOPY PUSH0 RETURN INVALID PUSH1 0x80 PUSH1 0x40 MSTORE PUSH1 0x4 CALLDATASIZE LT PUSH2 0x4D JUMPI PUSH0 CALLDATALOAD PUSH1 0xE0 SHR DUP1 PUSH4 0x6EAD22E EQ PUSH2 0xCC JUMPI DUP1 PUSH4 0x28BCB51A EQ PUSH2 0x10B JUMPI DUP1 PUSH4 0x5900FE9F EQ PUSH2 0x135 JUMPI DUP1 PUSH4 0x642F9163 EQ PUSH2 0x15D JUMPI DUP1 PUSH4 0x8DA5CB5B EQ PUSH2 0x19C JUMPI PUSH2 0x8D JUMP JUMPDEST CALLDATASIZE PUSH2 0x8D JUMPI PUSH32 0x88A5966D370B9919B20F3E2C13FF65706F196A4E32CC2C12BF57088F88525874 CALLER CALLVALUE PUSH1 0x40 MLOAD PUSH2 0x83 SWAP3 SWAP2 SWAP1 PUSH2 0x62E JUMP JUMPDEST PUSH1 0x40 MLOAD DUP1 SWAP2 SUB SWAP1 LOG1 STOP JUMPDEST PUSH32 0xACA09DD456CA888DCCF8CC966E382E6E3042BB7E4D2D7815015F844EDEAFCE42 CALLER CALLVALUE PUSH0 CALLDATASIZE PUSH1 0x40 MLOAD PUSH2 0xC2 SWAP5 SWAP4 SWAP3 SWAP2 SWAP1 PUSH2 0x6AF JUMP JUMPDEST PUSH1 0x40 MLOAD DUP1 SWAP2 SUB SWAP1 LOG1 STOP JUMPDEST CALLVALUE DUP1 ISZERO PUSH2 0xD7 JUMPI PUSH0 PUSH0 REVERT JUMPDEST POP PUSH2 0xF2 PUSH1 0x4 DUP1 CALLDATASIZE SUB DUP2 ADD SWAP1 PUSH2 0xED SWAP2 SWAP1 PUSH2 0x728 JUMP JUMPDEST PUSH2 0x1C6 JUMP JUMPDEST PUSH1 0x40 MLOAD PUSH2 0x102 SWAP5 SWAP4 SWAP3 SWAP2 SWAP1 PUSH2 0x7B3 JUMP JUMPDEST PUSH1 0x40 MLOAD DUP1 SWAP2 SUB SWAP1 RETURN JUMPDEST CALLVALUE DUP1 ISZERO PUSH2 0x116 JUMPI PUSH0 PUSH0 REVERT JUMPDEST POP PUSH2 0x11F PUSH2 0x30C JUMP JUMPDEST PUSH1 0x40 MLOAD PUSH2 0x12C SWAP2 SWAP1 PUSH2 0x804 JUMP JUMPDEST PUSH1 0x40 MLOAD DUP1 SWAP2 SUB SWAP1 RETURN JUMPDEST CALLVALUE DUP1 ISZERO PUSH2 0x140 JUMPI PUSH0 PUSH0 REVERT JUMPDEST POP PUSH2 0x15B PUSH1 0x4 DUP1 CALLDATASIZE SUB DUP2 ADD SWAP1 PUSH2 0x156 SWAP2 SWAP1 PUSH2 0x93B JUMP JUMPDEST PUSH2 0x317 JUMP JUMPDEST STOP JUMPDEST CALLVALUE DUP1 ISZERO PUSH2 0x168 JUMPI PUSH0 PUSH0 REVERT JUMPDEST POP PUSH2 0x183 PUSH1 0x4 DUP1 CALLDATASIZE SUB DUP2 ADD SWAP1 PUSH2 0x17E SWAP2 SWAP1 PUSH2 0x728 JUMP JUMPDEST PUSH2 0x3E3 JUMP JUMPDEST PUSH1 0x40 MLOAD PUSH2 0x193 SWAP5 SWAP4 SWAP3 SWAP2 SWAP1 PUSH2 0x7B3 JUMP JUMPDEST PUSH1 0x40 MLOAD DUP1 SWAP2 SUB SWAP1 RETURN JUMPDEST CALLVALUE DUP1 ISZERO PUSH2 0x1A7 JUMPI PUSH0 PUSH0 REVERT JUMPDEST POP PUSH2 0x1B0 PUSH2 0x5B2 JUMP JUMPDEST PUSH1 0x40 MLOAD PUSH2 0x1BD SWAP2 SWAP1 PUSH2 0x9D7 JUMP JUMPDEST PUSH1 0x40 MLOAD DUP1 SWAP2 SUB SWAP1 RETURN JUMPDEST PUSH0 DUP2 DUP2 SLOAD DUP2 LT PUSH2 0x1D4 JUMPI PUSH0 DUP1 REVERT JUMPDEST SWAP1 PUSH0 MSTORE PUSH1 0x20 PUSH0 KECCAK256 SWAP1 PUSH1 0x4 MUL ADD PUSH0 SWAP2 POP SWAP1 POP DUP1 PUSH0 ADD SLOAD SWAP1 DUP1 PUSH1 0x1 ADD DUP1 SLOAD PUSH2 0x1F9 SWAP1 PUSH2 0xA1D JUMP JUMPDEST DUP1 PUSH1 0x1F ADD PUSH1 0x20 DUP1 SWAP2 DIV MUL PUSH1 0x20 ADD PUSH1 0x40 MLOAD SWAP1 DUP2 ADD PUSH1 0x40 MSTORE DUP1 SWAP3 SWAP2 SWAP1 DUP2 DUP2 MSTORE PUSH1 0x20 ADD DUP3 DUP1 SLOAD PUSH2 0x225 SWAP1 PUSH2 0xA1D JUMP JUMPDEST DUP1 ISZERO PUSH2 0x270 JUMPI DUP1 PUSH1 0x1F LT PUSH2 0x247 JUMPI PUSH2 0x100 DUP1 DUP4 SLOAD DIV MUL DUP4 MSTORE SWAP2 PUSH1 0x20 ADD SWAP2 PUSH2 0x270 JUMP JUMPDEST DUP3 ADD SWAP2 SWAP1 PUSH0 MSTORE PUSH1 0x20 PUSH0 KECCAK256 SWAP1 JUMPDEST DUP2 SLOAD DUP2 MSTORE SWAP1 PUSH1 0x1 ADD SWAP1 PUSH1 0x20 ADD DUP1 DUP4 GT PUSH2 0x253 JUMPI DUP3 SWAP1 SUB PUSH1 0x1F AND DUP3 ADD SWAP2 JUMPDEST POP POP POP POP POP SWAP1 DUP1 PUSH1 0x2 ADD SLOAD SWAP1 DUP1 PUSH1 0x3 ADD DUP1 SLOAD PUSH2 0x28B SWAP1 PUSH2 0xA1D JUMP JUMPDEST DUP1 PUSH1 0x1F ADD PUSH1 0x20 DUP1 SWAP2 DIV MUL PUSH1 0x20 ADD PUSH1 0x40 MLOAD SWAP1 DUP2 ADD PUSH1 0x40 MSTORE DUP1 SWAP3 SWAP2 SWAP1 DUP2 DUP2 MSTORE PUSH1 0x20 ADD DUP3 DUP1 SLOAD PUSH2 0x2B7 SWAP1 PUSH2 0xA1D JUMP JUMPDEST DUP1 ISZERO PUSH2 0x302 JUMPI DUP1 PUSH1 0x1F LT PUSH2 0x2D9 JUMPI PUSH2 0x100 DUP1 DUP4 SLOAD DIV MUL DUP4 MSTORE SWAP2 PUSH1 0x20 ADD SWAP2 PUSH2 0x302 JUMP JUMPDEST DUP3 ADD SWAP2 SWAP1 PUSH0 MSTORE PUSH1 0x20 PUSH0 KECCAK256 SWAP1 JUMPDEST DUP2 SLOAD DUP2 MSTORE SWAP1 PUSH1 0x1 ADD SWAP1 PUSH1 0x20 ADD DUP1 DUP4 GT PUSH2 0x2E5 JUMPI DUP3 SWAP1 SUB PUSH1 0x1F AND DUP3 ADD SWAP2 JUMPDEST POP POP POP POP POP SWAP1 POP DUP5 JUMP JUMPDEST PUSH0 PUSH0 DUP1 SLOAD SWAP1 POP SWAP1 POP SWAP1 JUMP JUMPDEST PUSH0 PUSH1 0x40 MLOAD DUP1 PUSH1 0x80 ADD PUSH1 0x40 MSTORE DUP1 DUP7 DUP2 MSTORE PUSH1 0x20 ADD DUP6 DUP2 MSTORE PUSH1 0x20 ADD DUP5 DUP2 MSTORE PUSH1 0x20 ADD DUP4 DUP2 MSTORE POP SWAP1 POP PUSH0 DUP2 SWAP1 DUP1 PUSH1 0x1 DUP2 SLOAD ADD DUP1 DUP3 SSTORE DUP1 SWAP2 POP POP PUSH1 0x1 SWAP1 SUB SWAP1 PUSH0 MSTORE PUSH1 0x20 PUSH0 KECCAK256 SWAP1 PUSH1 0x4 MUL ADD PUSH0 SWAP1 SWAP2 SWAP1 SWAP2 SWAP1 SWAP2 POP PUSH0 DUP3 ADD MLOAD DUP2 PUSH0 ADD SSTORE PUSH1 0x20 DUP3 ADD MLOAD DUP2 PUSH1 0x1 ADD SWAP1 DUP2 PUSH2 0x380 SWAP2 SWAP1 PUSH2 0xBED JUMP JUMPDEST POP PUSH1 0x40 DUP3 ADD MLOAD DUP2 PUSH1 0x2 ADD SSTORE PUSH1 0x60 DUP3 ADD MLOAD DUP2 PUSH1 0x3 ADD SWAP1 DUP2 PUSH2 0x3A0 SWAP2 SWAP1 PUSH2 0xBED JUMP JUMPDEST POP POP POP PUSH32 0x9682C9A3E9734A1F8D3A641838A5D7862F4EB29FCBF4BD04E0CCAC28FFCFD227 DUP6 DUP6 PUSH1 0x40 MLOAD PUSH2 0x3D4 SWAP3 SWAP2 SWAP1 PUSH2 0xCBC JUMP JUMPDEST PUSH1 0x40 MLOAD DUP1 SWAP2 SUB SWAP1 LOG1 POP POP POP POP POP JUMP JUMPDEST PUSH0 PUSH1 0x60 PUSH0 PUSH1 0x60 PUSH0 DUP1 SLOAD SWAP1 POP DUP6 LT PUSH2 0x42F JUMPI PUSH1 0x40 MLOAD PUSH32 0x8C379A000000000000000000000000000000000000000000000000000000000 DUP2 MSTORE PUSH1 0x4 ADD PUSH2 0x426 SWAP1 PUSH2 0xD34 JUMP JUMPDEST PUSH1 0x40 MLOAD DUP1 SWAP2 SUB SWAP1 REVERT JUMPDEST PUSH0 PUSH0 DUP7 DUP2 SLOAD DUP2 LT PUSH2 0x443 JUMPI PUSH2 0x442 PUSH2 0xD52 JUMP JUMPDEST JUMPDEST SWAP1 PUSH0 MSTORE PUSH1 0x20 PUSH0 KECCAK256 SWAP1 PUSH1 0x4 MUL ADD PUSH1 0x40 MLOAD DUP1 PUSH1 0x80 ADD PUSH1 0x40 MSTORE SWAP1 DUP2 PUSH0 DUP3 ADD SLOAD DUP2 MSTORE PUSH1 0x20 ADD PUSH1 0x1 DUP3 ADD DUP1 SLOAD PUSH2 0x473 SWAP1 PUSH2 0xA1D JUMP JUMPDEST DUP1 PUSH1 0x1F ADD PUSH1 0x20 DUP1 SWAP2 DIV MUL PUSH1 0x20 ADD PUSH1 0x40 MLOAD SWAP1 DUP2 ADD PUSH1 0x40 MSTORE DUP1 SWAP3 SWAP2 SWAP1 DUP2 DUP2 MSTORE PUSH1 0x20 ADD DUP3 DUP1 SLOAD PUSH2 0x49F SWAP1 PUSH2 0xA1D JUMP JUMPDEST DUP1 ISZERO PUSH2 0x4EA JUMPI DUP1 PUSH1 0x1F LT PUSH2 0x4C1 JUMPI PUSH2 0x100 DUP1 DUP4 SLOAD DIV MUL DUP4 MSTORE SWAP2 PUSH1 0x20 ADD SWAP2 PUSH2 0x4EA JUMP JUMPDEST DUP3 ADD SWAP2 SWAP1 PUSH0 MSTORE PUSH1 0x20 PUSH0 KECCAK256 SWAP1 JUMPDEST DUP2 SLOAD DUP2 MSTORE SWAP1 PUSH1 0x1 ADD SWAP1 PUSH1 0x20 ADD DUP1 DUP4 GT PUSH2 0x4CD JUMPI DUP3 SWAP1 SUB PUSH1 0x1F AND DUP3 ADD SWAP2 JUMPDEST POP POP POP POP POP DUP2 MSTORE PUSH1 0x20 ADD PUSH1 0x2 DUP3 ADD SLOAD DUP2 MSTORE PUSH1 0x20 ADD PUSH1 0x3 DUP3 ADD DUP1 SLOAD PUSH2 0x50D SWAP1 PUSH2 0xA1D JUMP JUMPDEST DUP1 PUSH1 0x1F ADD PUSH1 0x20 DUP1 SWAP2 DIV MUL PUSH1 0x20 ADD PUSH1 0x40 MLOAD SWAP1 DUP2 ADD PUSH1 0x40 MSTORE DUP1 SWAP3 SWAP2 SWAP1 DUP2 DUP2 MSTORE PUSH1 0x20 ADD DUP3 DUP1 SLOAD PUSH2 0x539 SWAP1 PUSH2 0xA1D JUMP JUMPDEST DUP1 ISZERO PUSH2 0x584 JUMPI DUP1 PUSH1 0x1F LT PUSH2 0x55B JUMPI PUSH2 0x100 DUP1 DUP4 SLOAD DIV MUL DUP4 MSTORE SWAP2 PUSH1 0x20 ADD SWAP2 PUSH2 0x584 JUMP JUMPDEST DUP3 ADD SWAP2 SWAP1 PUSH0 MSTORE PUSH1 0x20 PUSH0 KECCAK256 SWAP1 JUMPDEST DUP2 SLOAD DUP2 MSTORE SWAP1 PUSH1 0x1 ADD SWAP1 PUSH1 0x20 ADD DUP1 DUP4 GT PUSH2 0x567 JUMPI DUP3 SWAP1 SUB PUSH1 0x1F AND DUP3 ADD SWAP2 JUMPDEST POP POP POP POP POP DUP2 MSTORE POP POP SWAP1 POP DUP1 PUSH0 ADD MLOAD DUP2 PUSH1 0x20 ADD MLOAD DUP3 PUSH1 0x40 ADD MLOAD DUP4 PUSH1 0x60 ADD MLOAD SWAP5 POP SWAP5 POP SWAP5 POP SWAP5 POP POP SWAP2 SWAP4 POP SWAP2 SWAP4 JUMP JUMPDEST PUSH1 0x1 PUSH0 SWAP1 SLOAD SWAP1 PUSH2 0x100 EXP SWAP1 DIV PUSH20 0xFFFFFFFFFFFFFFFFFFFFFFFFFFFFFFFFFFFFFFFF AND DUP2 JUMP JUMPDEST PUSH0 PUSH20 0xFFFFFFFFFFFFFFFFFFFFFFFFFFFFFFFFFFFFFFFF DUP3 AND SWAP1 POP SWAP2 SWAP1 POP JUMP JUMPDEST PUSH0 PUSH2 0x600 DUP3 PUSH2 0x5D7 JUMP JUMPDEST SWAP1 POP SWAP2 SWAP1 POP JUMP JUMPDEST PUSH2 0x610 DUP2 PUSH2 0x5F6 JUMP JUMPDEST DUP3 MSTORE POP POP JUMP JUMPDEST PUSH0 DUP2 SWAP1 POP SWAP2 SWAP1 POP JUMP JUMPDEST PUSH2 0x628 DUP2 PUSH2 0x616 JUMP JUMPDEST DUP3 MSTORE POP POP JUMP JUMPDEST PUSH0 PUSH1 0x40 DUP3 ADD SWAP1 POP PUSH2 0x641 PUSH0 DUP4 ADD DUP6 PUSH2 0x607 JUMP JUMPDEST PUSH2 0x64E PUSH1 0x20 DUP4 ADD DUP5 PUSH2 0x61F JUMP JUMPDEST SWAP4 SWAP3 POP POP POP JUMP JUMPDEST PUSH0 DUP3 DUP3 MSTORE PUSH1 0x20 DUP3 ADD SWAP1 POP SWAP3 SWAP2 POP POP JUMP JUMPDEST DUP3 DUP2 DUP4 CALLDATACOPY PUSH0 DUP4 DUP4 ADD MSTORE POP POP POP JUMP JUMPDEST PUSH0 PUSH1 0x1F NOT PUSH1 0x1F DUP4 ADD AND SWAP1 POP SWAP2 SWAP1 POP JUMP JUMPDEST PUSH0 PUSH2 0x68E DUP4 DUP6 PUSH2 0x655 JUMP JUMPDEST SWAP4 POP PUSH2 0x69B DUP4 DUP6 DUP5 PUSH2 0x665 JUMP JUMPDEST PUSH2 0x6A4 DUP4 PUSH2 0x673 JUMP JUMPDEST DUP5 ADD SWAP1 POP SWAP4 SWAP3 POP POP POP JUMP JUMPDEST PUSH0 PUSH1 0x60 DUP3 ADD SWAP1 POP PUSH2 0x6C2 PUSH0 DUP4 ADD DUP8 PUSH2 0x607 JUMP JUMPDEST PUSH2 0x6CF PUSH1 0x20 DUP4 ADD DUP7 PUSH2 0x61F JUMP JUMPDEST DUP2 DUP2 SUB PUSH1 0x40 DUP4 ADD MSTORE PUSH2 0x6E2 DUP2 DUP5 DUP7 PUSH2 0x683 JUMP JUMPDEST SWAP1 POP SWAP6 SWAP5 POP POP POP POP POP JUMP JUMPDEST PUSH0 PUSH1 0x40 MLOAD SWAP1 POP SWAP1 JUMP JUMPDEST PUSH0 PUSH0 REVERT JUMPDEST PUSH0 PUSH0 REVERT JUMPDEST PUSH2 0x707 DUP2 PUSH2 0x616 JUMP JUMPDEST DUP2 EQ PUSH2 0x711 JUMPI PUSH0 PUSH0 REVERT JUMPDEST POP JUMP JUMPDEST PUSH0 DUP2 CALLDATALOAD SWAP1 POP PUSH2 0x722 DUP2 PUSH2 0x6FE JUMP JUMPDEST SWAP3 SWAP2 POP POP JUMP JUMPDEST PUSH0 PUSH1 0x20 DUP3 DUP5 SUB SLT ISZERO PUSH2 0x73D JUMPI PUSH2 0x73C PUSH2 0x6F6 JUMP JUMPDEST JUMPDEST PUSH0 PUSH2 0x74A DUP5 DUP3 DUP6 ADD PUSH2 0x714 JUMP JUMPDEST SWAP2 POP POP SWAP3 SWAP2 POP POP JUMP JUMPDEST PUSH0 DUP2 MLOAD SWAP1 POP SWAP2 SWAP1 POP JUMP JUMPDEST PUSH0 DUP3 DUP3 MSTORE PUSH1 0x20 DUP3 ADD SWAP1 POP SWAP3 SWAP2 POP POP JUMP JUMPDEST DUP3 DUP2 DUP4 MCOPY PUSH0 DUP4 DUP4 ADD MSTORE POP POP POP JUMP JUMPDEST PUSH0 PUSH2 0x785 DUP3 PUSH2 0x753 JUMP JUMPDEST PUSH2 0x78F DUP2 DUP6 PUSH2 0x75D JUMP JUMPDEST SWAP4 POP PUSH2 0x79F DUP2 DUP6 PUSH1 0x20 DUP7 ADD PUSH2 0x76D JUMP JUMPDEST PUSH2 0x7A8 DUP2 PUSH2 0x673 JUMP JUMPDEST DUP5 ADD SWAP2 POP POP SWAP3 SWAP2 POP POP JUMP JUMPDEST PUSH0 PUSH1 0x80 DUP3 ADD SWAP1 POP PUSH2 0x7C6 PUSH0 DUP4 ADD DUP8 PUSH2 0x61F JUMP JUMPDEST DUP2 DUP2 SUB PUSH1 0x20 DUP4 ADD MSTORE PUSH2 0x7D8 DUP2 DUP7 PUSH2 0x77B JUMP JUMPDEST SWAP1 POP PUSH2 0x7E7 PUSH1 0x40 DUP4 ADD DUP6 PUSH2 0x61F JUMP JUMPDEST DUP2 DUP2 SUB PUSH1 0x60 DUP4 ADD MSTORE PUSH2 0x7F9 DUP2 DUP5 PUSH2 0x77B JUMP JUMPDEST SWAP1 POP SWAP6 SWAP5 POP POP POP POP POP JUMP JUMPDEST PUSH0 PUSH1 0x20 DUP3 ADD SWAP1 POP PUSH2 0x817 PUSH0 DUP4 ADD DUP5 PUSH2 0x61F JUMP JUMPDEST SWAP3 SWAP2 POP POP JUMP JUMPDEST PUSH0 PUSH0 REVERT JUMPDEST PUSH0 PUSH0 REVERT JUMPDEST PUSH32 0x4E487B7100000000000000000000000000000000000000000000000000000000 PUSH0 MSTORE PUSH1 0x41 PUSH1 0x4 MSTORE PUSH1 0x24 PUSH0 REVERT JUMPDEST PUSH2 0x85B DUP3 PUSH2 0x673 JUMP JUMPDEST DUP2 ADD DUP2 DUP2 LT PUSH8 0xFFFFFFFFFFFFFFFF DUP3 GT OR ISZERO PUSH2 0x87A JUMPI PUSH2 0x879 PUSH2 0x825 JUMP JUMPDEST JUMPDEST DUP1 PUSH1 0x40 MSTORE POP POP POP JUMP JUMPDEST PUSH0 PUSH2 0x88C PUSH2 0x6ED JUMP JUMPDEST SWAP1 POP PUSH2 0x898 DUP3 DUP3 PUSH2 0x852 JUMP JUMPDEST SWAP2 SWAP1 POP JUMP JUMPDEST PUSH0 PUSH8 0xFFFFFFFFFFFFFFFF DUP3 GT ISZERO PUSH2 0x8B7 JUMPI PUSH2 0x8B6 PUSH2 0x825 JUMP JUMPDEST JUMPDEST PUSH2 0x8C0 DUP3 PUSH2 0x673 JUMP JUMPDEST SWAP1 POP PUSH1 0x20 DUP2 ADD SWAP1 POP SWAP2 SWAP1 POP JUMP JUMPDEST PUSH0 PUSH2 0x8DF PUSH2 0x8DA DUP5 PUSH2 0x89D JUMP JUMPDEST PUSH2 0x883 JUMP JUMPDEST SWAP1 POP DUP3 DUP2 MSTORE PUSH1 0x20 DUP2 ADD DUP5 DUP5 DUP5 ADD GT ISZERO PUSH2 0x8FB JUMPI PUSH2 0x8FA PUSH2 0x821 JUMP JUMPDEST JUMPDEST PUSH2 0x906 DUP5 DUP3 DUP6 PUSH2 0x665 JUMP JUMPDEST POP SWAP4 SWAP3 POP POP POP JUMP JUMPDEST PUSH0 DUP3 PUSH1 0x1F DUP4 ADD SLT PUSH2 0x922 JUMPI PUSH2 0x921 PUSH2 0x81D JUMP JUMPDEST JUMPDEST DUP2 CALLDATALOAD PUSH2 0x932 DUP5 DUP3 PUSH1 0x20 DUP7 ADD PUSH2 0x8CD JUMP JUMPDEST SWAP2 POP POP SWAP3 SWAP2 POP POP JUMP JUMPDEST PUSH0 PUSH0 PUSH0 PUSH0 PUSH1 0x80 DUP6 DUP8 SUB SLT ISZERO PUSH2 0x953 JUMPI PUSH2 0x952 PUSH2 0x6F6 JUMP JUMPDEST JUMPDEST PUSH0 PUSH2 0x960 DUP8 DUP3 DUP9 ADD PUSH2 0x714 JUMP JUMPDEST SWAP5 POP POP PUSH1 0x20 DUP6 ADD CALLDATALOAD PUSH8 0xFFFFFFFFFFFFFFFF DUP2 GT ISZERO PUSH2 0x981 JUMPI PUSH2 0x980 PUSH2 0x6FA JUMP JUMPDEST JUMPDEST PUSH2 0x98D DUP8 DUP3 DUP9 ADD PUSH2 0x90E JUMP JUMPDEST SWAP4 POP POP PUSH1 0x40 PUSH2 0x99E DUP8 DUP3 DUP9 ADD PUSH2 0x714 JUMP JUMPDEST SWAP3 POP POP PUSH1 0x60 DUP6 ADD CALLDATALOAD PUSH8 0xFFFFFFFFFFFFFFFF DUP2 GT ISZERO PUSH2 0x9BF JUMPI PUSH2 0x9BE PUSH2 0x6FA JUMP JUMPDEST JUMPDEST PUSH2 0x9CB DUP8 DUP3 DUP9 ADD PUSH2 0x90E JUMP JUMPDEST SWAP2 POP POP SWAP3 SWAP6 SWAP2 SWAP5 POP SWAP3 POP JUMP JUMPDEST PUSH0 PUSH1 0x20 DUP3 ADD SWAP1 POP PUSH2 0x9EA PUSH0 DUP4 ADD DUP5 PUSH2 0x607 JUMP JUMPDEST SWAP3 SWAP2 POP POP JUMP JUMPDEST PUSH32 0x4E487B7100000000000000000000000000000000000000000000000000000000 PUSH0 MSTORE PUSH1 0x22 PUSH1 0x4 MSTORE PUSH1 0x24 PUSH0 REVERT JUMPDEST PUSH0 PUSH1 0x2 DUP3 DIV SWAP1 POP PUSH1 0x1 DUP3 AND DUP1 PUSH2 0xA34 JUMPI PUSH1 0x7F DUP3 AND SWAP2 POP JUMPDEST PUSH1 0x20 DUP3 LT DUP2 SUB PUSH2 0xA47 JUMPI PUSH2 0xA46 PUSH2 0x9F0 JUMP JUMPDEST JUMPDEST POP SWAP2 SWAP1 POP JUMP JUMPDEST PUSH0 DUP2 SWAP1 POP DUP2 PUSH0 MSTORE PUSH1 0x20 PUSH0 KECCAK256 SWAP1 POP SWAP2 SWAP1 POP JUMP JUMPDEST PUSH0 PUSH1 0x20 PUSH1 0x1F DUP4 ADD DIV SWAP1 POP SWAP2 SWAP1 POP JUMP JUMPDEST PUSH0 DUP3 DUP3 SHL SWAP1 POP SWAP3 SWAP2 POP POP JUMP JUMPDEST PUSH0 PUSH1 0x8 DUP4 MUL PUSH2 0xAA9 PUSH32 0xFFFFFFFFFFFFFFFFFFFFFFFFFFFFFFFFFFFFFFFFFFFFFFFFFFFFFFFFFFFFFFFF DUP3 PUSH2 0xA6E JUMP JUMPDEST PUSH2 0xAB3 DUP7 DUP4 PUSH2 0xA6E JUMP JUMPDEST SWAP6 POP DUP1 NOT DUP5 AND SWAP4 POP DUP1 DUP7 AND DUP5 OR SWAP3 POP POP POP SWAP4 SWAP3 POP POP POP JUMP JUMPDEST PUSH0 DUP2 SWAP1 POP SWAP2 SWAP1 POP JUMP JUMPDEST PUSH0 PUSH2 0xAEE PUSH2 0xAE9 PUSH2 0xAE4 DUP5 PUSH2 0x616 JUMP JUMPDEST PUSH2 0xACB JUMP JUMPDEST PUSH2 0x616 JUMP JUMPDEST SWAP1 POP SWAP2 SWAP1 POP JUMP JUMPDEST PUSH0 DUP2 SWAP1 POP SWAP2 SWAP1 POP JUMP JUMPDEST PUSH2 0xB07 DUP4 PUSH2 0xAD4 JUMP JUMPDEST PUSH2 0xB1B PUSH2 0xB13 DUP3 PUSH2 0xAF5 JUMP JUMPDEST DUP5 DUP5 SLOAD PUSH2 0xA7A JUMP JUMPDEST DUP3 SSTORE POP POP POP POP JUMP JUMPDEST PUSH0 PUSH0 SWAP1 POP SWAP1 JUMP JUMPDEST PUSH2 0xB32 PUSH2 0xB23 JUMP JUMPDEST PUSH2 0xB3D DUP2 DUP5 DUP5 PUSH2 0xAFE JUMP JUMPDEST POP POP POP JUMP JUMPDEST JUMPDEST DUP2 DUP2 LT ISZERO PUSH2 0xB60 JUMPI PUSH2 0xB55 PUSH0 DUP3 PUSH2 0xB2A JUMP JUMPDEST PUSH1 0x1 DUP2 ADD SWAP1 POP PUSH2 0xB43 JUMP JUMPDEST POP POP JUMP JUMPDEST PUSH1 0x1F DUP3 GT ISZERO PUSH2 0xBA5 JUMPI PUSH2 0xB76 DUP2 PUSH2 0xA4D JUMP JUMPDEST PUSH2 0xB7F DUP5 PUSH2 0xA5F JUMP JUMPDEST DUP2 ADD PUSH1 0x20 DUP6 LT ISZERO PUSH2 0xB8E JUMPI DUP2 SWAP1 POP JUMPDEST PUSH2 0xBA2 PUSH2 0xB9A DUP6 PUSH2 0xA5F JUMP JUMPDEST DUP4 ADD DUP3 PUSH2 0xB42 JUMP JUMPDEST POP POP JUMPDEST POP POP POP JUMP JUMPDEST PUSH0 DUP3 DUP3 SHR SWAP1 POP SWAP3 SWAP2 POP POP JUMP JUMPDEST PUSH0 PUSH2 0xBC5 PUSH0 NOT DUP5 PUSH1 0x8 MUL PUSH2 0xBAA JUMP JUMPDEST NOT DUP1 DUP4 AND SWAP2 POP POP SWAP3 SWAP2 POP POP JUMP JUMPDEST PUSH0 PUSH2 0xBDD DUP4 DUP4 PUSH2 0xBB6 JUMP JUMPDEST SWAP2 POP DUP3 PUSH1 0x2 MUL DUP3 OR SWAP1 POP SWAP3 SWAP2 POP POP JUMP JUMPDEST PUSH2 0xBF6 DUP3 PUSH2 0x753 JUMP JUMPDEST PUSH8 0xFFFFFFFFFFFFFFFF DUP2 GT ISZERO PUSH2 0xC0F JUMPI PUSH2 0xC0E PUSH2 0x825 JUMP JUMPDEST JUMPDEST PUSH2 0xC19 DUP3 SLOAD PUSH2 0xA1D JUMP JUMPDEST PUSH2 0xC24 DUP3 DUP3 DUP6 PUSH2 0xB64 JUMP JUMPDEST PUSH0 PUSH1 0x20 SWAP1 POP PUSH1 0x1F DUP4 GT PUSH1 0x1 DUP2 EQ PUSH2 0xC55 JUMPI PUSH0 DUP5 ISZERO PUSH2 0xC43 JUMPI DUP3 DUP8 ADD MLOAD SWAP1 POP JUMPDEST PUSH2 0xC4D DUP6 DUP3 PUSH2 0xBD2 JUMP JUMPDEST DUP7 SSTORE POP PUSH2 0xCB4 JUMP JUMPDEST PUSH1 0x1F NOT DUP5 AND PUSH2 0xC63 DUP7 PUSH2 0xA4D JUMP JUMPDEST PUSH0 JUMPDEST DUP3 DUP2 LT ISZERO PUSH2 0xC8A JUMPI DUP5 DUP10 ADD MLOAD DUP3 SSTORE PUSH1 0x1 DUP3 ADD SWAP2 POP PUSH1 0x20 DUP6 ADD SWAP5 POP PUSH1 0x20 DUP2 ADD SWAP1 POP PUSH2 0xC65 JUMP JUMPDEST DUP7 DUP4 LT ISZERO PUSH2 0xCA7 JUMPI DUP5 DUP10 ADD MLOAD PUSH2 0xCA3 PUSH1 0x1F DUP10 AND DUP3 PUSH2 0xBB6 JUMP JUMPDEST DUP4 SSTORE POP JUMPDEST PUSH1 0x1 PUSH1 0x2 DUP9 MUL ADD DUP9 SSTORE POP POP POP JUMPDEST POP POP POP POP POP POP JUMP JUMPDEST PUSH0 PUSH1 0x40 DUP3 ADD SWAP1 POP PUSH2 0xCCF PUSH0 DUP4 ADD DUP6 PUSH2 0x61F JUMP JUMPDEST DUP2 DUP2 SUB PUSH1 0x20 DUP4 ADD MSTORE PUSH2 0xCE1 DUP2 DUP5 PUSH2 0x77B JUMP JUMPDEST SWAP1 POP SWAP4 SWAP3 POP POP POP JUMP JUMPDEST PUSH32 0x496E76616C696420696E64657800000000000000000000000000000000000000 PUSH0 DUP3 ADD MSTORE POP JUMP JUMPDEST PUSH0 PUSH2 0xD1E PUSH1 0xD DUP4 PUSH2 0x75D JUMP JUMPDEST SWAP2 POP PUSH2 0xD29 DUP3 PUSH2 0xCEA JUMP JUMPDEST PUSH1 0x20 DUP3 ADD SWAP1 POP SWAP2 SWAP1 POP JUMP JUMPDEST PUSH0 PUSH1 0x20 DUP3 ADD SWAP1 POP DUP2 DUP2 SUB PUSH0 DUP4 ADD MSTORE PUSH2 0xD4B DUP2 PUSH2 0xD12 JUMP JUMPDEST SWAP1 POP SWAP2 SWAP1 POP JUMP JUMPDEST PUSH32 0x4E487B7100000000000000000000000000000000000000000000000000000000 PUSH0 MSTORE PUSH1 0x32 PUSH1 0x4 MSTORE PUSH1 0x24 PUSH0 REVERT INVALID LOG2 PUSH5 0x6970667358 0x22 SLT KECCAK256 SDIV 0xDA DUP8 0xC4 CHAINID 0xC4 PREVRANDAO 0x2B 0x23 0xE2 0xD7 DUP11 LOG0 0xA8 MSTORE NOT PUSH3 0x176540 LOG1 CODECOPY 0xC8 0x25 JUMPDEST SWAP15 MSIZE MSIZE 0xFC 0x2F SWAPN 0xB0 PUSH5 0x736F6C6343 STOP ADDMOD 0x1E STOP CALLER "
				},
				"gasEstimates": {
					"creation": {
						"codeDepositCost": "701800",
						"executionCost": "24997",
						"totalCost": "726797"
					},
					"external": {
						"": "infinite",
						"addStudent(uint256,string,uint256,string)": "infinite",
						"getStudent(uint256)": "infinite",
						"getTotalStudents()": "2439",
						"owner()": "2574",
						"students(uint256)": "infinite"
					}
				},
				"methodIdentifiers": {
					"addStudent(uint256,string,uint256,string)": "5900fe9f",
					"getStudent(uint256)": "642f9163",
					"getTotalStudents()": "28bcb51a",
					"owner()": "8da5cb5b",
					"students(uint256)": "06ead22e"
				}
			},
			"storageLayout": {
				"storage": [
					{
						"astId": 14,
						"contract": "Assignment_3_student/StudentData.sol:StudentData",
						"label": "students",
						"offset": 0,
						"slot": "0",
						"type": "t_array(t_struct(Student)10_storage)dyn_storage"
					},
					{
						"astId": 16,
						"contract": "Assignment_3_student/StudentData.sol:StudentData",
						"label": "owner",
						"offset": 0,
						"slot": "1",
						"type": "t_address"
					}
				],
				"types": {
					"t_address": {
						"encoding": "inplace",
						"label": "address",
						"numberOfBytes": "20"
					},
					"t_array(t_struct(Student)10_storage)dyn_storage": {
						"base": "t_struct(Student)10_storage",
						"encoding": "dynamic_array",
						"label": "struct StudentData.Student[]",
						"numberOfBytes": "32"
					},
					"t_string_storage": {
						"encoding": "bytes",
						"label": "string",
						"numberOfBytes": "32"
					},
					"t_struct(Student)10_storage": {
						"encoding": "inplace",
						"label": "struct StudentData.Student",
						"members": [
							{
								"astId": 3,
								"contract": "Assignment_3_student/StudentData.sol:StudentData",
								"label": "id",
								"offset": 0,
								"slot": "0",
								"type": "t_uint256"
							},
							{
								"astId": 5,
								"contract": "Assignment_3_student/StudentData.sol:StudentData",
								"label": "name",
								"offset": 0,
								"slot": "1",
								"type": "t_string_storage"
							},
							{
								"astId": 7,
								"contract": "Assignment_3_student/StudentData.sol:StudentData",
								"label": "age",
								"offset": 0,
								"slot": "2",
								"type": "t_uint256"
							},
							{
								"astId": 9,
								"contract": "Assignment_3_student/StudentData.sol:StudentData",
								"label": "course",
								"offset": 0,
								"slot": "3",
								"type": "t_string_storage"
							}
						],
						"numberOfBytes": "128"
					},
					"t_uint256": {
						"encoding": "inplace",
						"label": "uint256",
						"numberOfBytes": "32"
					}
				}
			},
			"userdoc": {
				"kind": "user",
				"methods": {},
				"version": 1
			}
		}
	}
}